{
  "contractName": "C3",
  "abi": [
    {
      "constant": true,
      "inputs": [],
      "name": "ppt",
      "outputs": [
        {
          "name": "",
          "type": "uint256"
        }
      ],
      "payable": false,
      "stateMutability": "view",
      "type": "function"
    },
    {
      "constant": true,
      "inputs": [],
      "name": "currentState",
      "outputs": [
        {
          "name": "",
          "type": "uint8"
        }
      ],
      "payable": false,
      "stateMutability": "view",
      "type": "function"
    },
    {
      "constant": true,
      "inputs": [],
      "name": "endorser",
      "outputs": [
        {
          "name": "",
          "type": "address"
        }
      ],
      "payable": false,
      "stateMutability": "view",
      "type": "function"
    },
    {
      "constant": true,
      "inputs": [],
      "name": "belowGroundCarbon",
      "outputs": [
        {
          "name": "",
          "type": "uint256"
        }
      ],
      "payable": false,
      "stateMutability": "view",
      "type": "function"
    },
    {
      "constant": true,
      "inputs": [],
      "name": "aboveGroundCarbon",
      "outputs": [
        {
          "name": "",
          "type": "uint256"
        }
      ],
      "payable": false,
      "stateMutability": "view",
      "type": "function"
    },
    {
      "constant": true,
      "inputs": [],
      "name": "latitude",
      "outputs": [
        {
          "name": "",
          "type": "int256"
        }
      ],
      "payable": false,
      "stateMutability": "view",
      "type": "function"
    },
    {
      "constant": true,
      "inputs": [],
      "name": "longitude",
      "outputs": [
        {
          "name": "",
          "type": "int256"
        }
      ],
      "payable": false,
      "stateMutability": "view",
      "type": "function"
    },
    {
      "constant": true,
      "inputs": [],
      "name": "description",
      "outputs": [
        {
          "name": "",
          "type": "string"
        }
      ],
      "payable": false,
      "stateMutability": "view",
      "type": "function"
    },
    {
      "constant": true,
      "inputs": [],
      "name": "totalCarbon",
      "outputs": [
        {
          "name": "",
          "type": "uint256"
        }
      ],
      "payable": false,
      "stateMutability": "view",
      "type": "function"
    },
    {
      "constant": true,
      "inputs": [],
      "name": "ownerAddress",
      "outputs": [
        {
          "name": "",
          "type": "address"
        }
      ],
      "payable": false,
      "stateMutability": "view",
      "type": "function"
    },
    {
      "constant": true,
      "inputs": [
        {
          "name": "",
          "type": "uint256"
        }
      ],
      "name": "allBuyers",
      "outputs": [
        {
          "name": "",
          "type": "address"
        }
      ],
      "payable": false,
      "stateMutability": "view",
      "type": "function"
    },
    {
      "constant": true,
      "inputs": [
        {
          "name": "",
          "type": "address"
        }
      ],
      "name": "buyers",
      "outputs": [
        {
          "name": "",
          "type": "uint256"
        }
      ],
      "payable": false,
      "stateMutability": "view",
      "type": "function"
    },
    {
      "constant": true,
      "inputs": [],
      "name": "buyableCarbon",
      "outputs": [
        {
          "name": "",
          "type": "uint256"
        }
      ],
      "payable": false,
      "stateMutability": "view",
      "type": "function"
    },
    {
      "constant": true,
      "inputs": [],
      "name": "hectares",
      "outputs": [
        {
          "name": "",
          "type": "uint256"
        }
      ],
      "payable": false,
      "stateMutability": "view",
      "type": "function"
    },
    {
      "constant": true,
      "inputs": [],
      "name": "geometryHash",
      "outputs": [
        {
          "name": "",
          "type": "string"
        }
      ],
      "payable": false,
      "stateMutability": "view",
      "type": "function"
    },
    {
      "inputs": [
        {
          "name": "_totalCarbon",
          "type": "uint256"
        },
        {
          "name": "_aboveGroundCarbon",
          "type": "uint256"
        },
        {
          "name": "_belowGroundCarbon",
          "type": "uint256"
        },
        {
          "name": "_hectares",
          "type": "uint256"
        },
        {
          "name": "_latitude",
          "type": "int256"
        },
        {
          "name": "_longitude",
          "type": "int256"
        },
        {
          "name": "_ppt",
          "type": "uint256"
        },
        {
          "name": "_description",
          "type": "string"
        },
        {
          "name": "_geometryHash",
          "type": "string"
        },
        {
          "name": "_ownerAddress",
          "type": "address"
        },
        {
          "name": "_endorser",
          "type": "address"
        }
      ],
      "payable": false,
      "stateMutability": "nonpayable",
      "type": "constructor"
    },
    {
      "constant": false,
      "inputs": [],
      "name": "endorsementComplete",
      "outputs": [],
      "payable": false,
      "stateMutability": "nonpayable",
      "type": "function"
    },
    {
      "constant": false,
      "inputs": [
        {
          "name": "_tons",
          "type": "uint256"
        }
      ],
      "name": "buyCarbon",
      "outputs": [],
      "payable": true,
      "stateMutability": "payable",
      "type": "function"
    }
  ],
  "bytecode": "0x60806040523480156200001157600080fd5b5060405162000e1838038062000e1883398101806040526101608110156200003857600080fd5b810190808051906020019092919080519060200190929190805190602001909291908051906020019092919080519060200190929190805190602001909291908051906020019092919080516401000000008111156200009757600080fd5b82810190506020810184811115620000ae57600080fd5b8151856001820283011164010000000082111715620000cc57600080fd5b50509291906020018051640100000000811115620000e957600080fd5b828101905060208101848111156200010057600080fd5b81518560018202830111640100000000821117156200011e57600080fd5b505092919060200180519060200190929190805190602001909291905050508a6001819055508960038190555088600481905550876005819055508660068190555085600781905550846008819055508360099080519060200190620001869291906200025e565b5082600a90805190602001906200019f9291906200025e565b5081600b60006101000a81548173ffffffffffffffffffffffffffffffffffffffff021916908373ffffffffffffffffffffffffffffffffffffffff16021790555080600c60006101000a81548173ffffffffffffffffffffffffffffffffffffffff021916908373ffffffffffffffffffffffffffffffffffffffff16021790555060008060006101000a81548160ff021916908360018111156200024157fe5b02179055508a60028190555050505050505050505050506200030d565b828054600181600116156101000203166002900490600052602060002090601f016020900481019282601f10620002a157805160ff1916838001178555620002d2565b82800160010185558215620002d2579182015b82811115620002d1578251825591602001919060010190620002b4565b5b509050620002e19190620002e5565b5090565b6200030a91905b8082111562000306576000816000905550600101620002ec565b5090565b90565b610afb806200031d6000396000f3fe6080604052600436106100f0576000357c0100000000000000000000000000000000000000000000000000000000900463ffffffff168062328792146100f55780630c3f6acf14610120578063197881b7146101595780631a607821146101b05780632b2e1374146101db5780634fd7d76a14610206578063589af69c146102315780635d06d3d01461025c5780636132995c146102735780637284e416146102a15780637dbad26c146103315780638f84aa091461035c57806393963410146103b357806397a993aa1461042e578063b3f487f114610493578063ee2bdd48146104be578063f8e131f0146104e9575b600080fd5b34801561010157600080fd5b5061010a610579565b6040518082815260200191505060405180910390f35b34801561012c57600080fd5b5061013561057f565b6040518082600181111561014557fe5b60ff16815260200191505060405180910390f35b34801561016557600080fd5b5061016e610591565b604051808273ffffffffffffffffffffffffffffffffffffffff1673ffffffffffffffffffffffffffffffffffffffff16815260200191505060405180910390f35b3480156101bc57600080fd5b506101c56105b7565b6040518082815260200191505060405180910390f35b3480156101e757600080fd5b506101f06105bd565b6040518082815260200191505060405180910390f35b34801561021257600080fd5b5061021b6105c3565b6040518082815260200191505060405180910390f35b34801561023d57600080fd5b506102466105c9565b6040518082815260200191505060405180910390f35b34801561026857600080fd5b506102716105cf565b005b61029f6004803603602081101561028957600080fd5b8101908080359060200190929190505050610685565b005b3480156102ad57600080fd5b506102b6610905565b6040518080602001828103825283818151815260200191508051906020019080838360005b838110156102f65780820151818401526020810190506102db565b50505050905090810190601f1680156103235780820380516001836020036101000a031916815260200191505b509250505060405180910390f35b34801561033d57600080fd5b506103466109a3565b6040518082815260200191505060405180910390f35b34801561036857600080fd5b506103716109a9565b604051808273ffffffffffffffffffffffffffffffffffffffff1673ffffffffffffffffffffffffffffffffffffffff16815260200191505060405180910390f35b3480156103bf57600080fd5b506103ec600480360360208110156103d657600080fd5b81019080803590602001909291905050506109cf565b604051808273ffffffffffffffffffffffffffffffffffffffff1673ffffffffffffffffffffffffffffffffffffffff16815260200191505060405180910390f35b34801561043a57600080fd5b5061047d6004803603602081101561045157600080fd5b81019080803573ffffffffffffffffffffffffffffffffffffffff169060200190929190505050610a0d565b6040518082815260200191505060405180910390f35b34801561049f57600080fd5b506104a8610a25565b6040518082815260200191505060405180910390f35b3480156104ca57600080fd5b506104d3610a2b565b6040518082815260200191505060405180910390f35b3480156104f557600080fd5b506104fe610a31565b6040518080602001828103825283818151815260200191508051906020019080838360005b8381101561053e578082015181840152602081019050610523565b50505050905090810190601f16801561056b5780820380516001836020036101000a031916815260200191505b509250505060405180910390f35b60085481565b6000809054906101000a900460ff1681565b600c60009054906101000a900473ffffffffffffffffffffffffffffffffffffffff1681565b60045481565b60035481565b60065481565b60075481565b600c60009054906101000a900473ffffffffffffffffffffffffffffffffffffffff1673ffffffffffffffffffffffffffffffffffffffff163373ffffffffffffffffffffffffffffffffffffffff1614151561062b57600080fd5b600080600181111561063957fe5b6000809054906101000a900460ff16600181111561065357fe5b14151561065f57600080fd5b60016000806101000a81548160ff0219169083600181111561067d57fe5b021790555050565b600180600181111561069357fe5b6000809054906101000a900460ff1660018111156106ad57fe5b1415156106b957600080fd5b600082111515610731576040517f08c379a000000000000000000000000000000000000000000000000000000000815260040180806020018281038252601d8152602001807f546f6e73206d757374206265206120706f7369746976652076616c756500000081525060200191505060405180910390fd5b6002548211156107415760025491505b816008540234101515156107e3576040517f08c379a00000000000000000000000000000000000000000000000000000000081526004018080602001828103825260308152602001807f496e73756666696369656e742076616c75652073656e7420746f20636f6d706c81526020017f657465207472616e73616374696f6e2e0000000000000000000000000000000081525060400191505060405180910390fd5b600b60009054906101000a900473ffffffffffffffffffffffffffffffffffffffff1673ffffffffffffffffffffffffffffffffffffffff166108fc349081150290604051600060405180830381858888f1935050505015801561084b573d6000803e3d6000fd5b50816002540360028190555081600d60003373ffffffffffffffffffffffffffffffffffffffff1673ffffffffffffffffffffffffffffffffffffffff16815260200190815260200160002081905550600e3390806001815401808255809150509060018203906000526020600020016000909192909190916101000a81548173ffffffffffffffffffffffffffffffffffffffff021916908373ffffffffffffffffffffffffffffffffffffffff160217905550505050565b60098054600181600116156101000203166002900480601f01602080910402602001604051908101604052809291908181526020018280546001816001161561010002031660029004801561099b5780601f106109705761010080835404028352916020019161099b565b820191906000526020600020905b81548152906001019060200180831161097e57829003601f168201915b505050505081565b60015481565b600b60009054906101000a900473ffffffffffffffffffffffffffffffffffffffff1681565b600e818154811015156109de57fe5b906000526020600020016000915054906101000a900473ffffffffffffffffffffffffffffffffffffffff1681565b600d6020528060005260406000206000915090505481565b60025481565b60055481565b600a8054600181600116156101000203166002900480601f016020809104026020016040519081016040528092919081815260200182805460018160011615610100020316600290048015610ac75780601f10610a9c57610100808354040283529160200191610ac7565b820191906000526020600020905b815481529060010190602001808311610aaa57829003601f168201915b50505050508156fea165627a7a723058202547f22a714dcdf897ffa9a90be027c943e597507629720a76a31e1fb73ce0310029",
  "source": "pragma solidity ^0.5;\n\nimport './Carbos.sol';\n\ncontract C3 {\n    enum State{\n      AWAITING_ENDORSEMENT,\n      VERIFIED\n    }\n    State public currentState;\n\n    modifier requireState(State expectedState){\n        require(currentState == expectedState);\n        _;\n    }\n\n    modifier endorserOnly(){\n        require(msg.sender == endorser);\n        _;\n    }\n\n    uint public totalCarbon;\n    uint public buyableCarbon;\n    uint public aboveGroundCarbon;\n    uint public belowGroundCarbon;\n    uint public hectares;\n    int public latitude;\n    int public longitude;\n    // uint public raId;\n    uint public ppt;\n    string public description;\n    string public geometryHash;\n    address payable public ownerAddress;\n    address public endorser;\n    mapping(address => uint) public buyers;\n    address[] public allBuyers;  //may be reduntant storage with transactional history providing addresses\n\n    //set all params to global variables, and set buyableCarbon to _totalCarbon\n    constructor(\n      uint _totalCarbon,\n      uint _aboveGroundCarbon,\n      uint _belowGroundCarbon,\n      uint _hectares,\n      int _latitude,\n      int _longitude,\n      uint _ppt,\n      // uint _raId,\n      string memory _description,\n      string memory _geometryHash,\n      address payable _ownerAddress,\n      address _endorser\n    ) public{\n      totalCarbon = _totalCarbon;\n      aboveGroundCarbon = _aboveGroundCarbon;\n      belowGroundCarbon = _belowGroundCarbon;\n      hectares = _hectares;\n      latitude = _latitude;\n      longitude = _longitude;\n      ppt = _ppt;\n      // raId = _raId;\n      description = _description;\n      geometryHash = _geometryHash;\n      ownerAddress = _ownerAddress;\n      endorser = _endorser;\n      //local\n      currentState = State.AWAITING_ENDORSEMENT;\n      buyableCarbon = _totalCarbon; //set total buyable to total carbon\n    }\n\n    function endorsementComplete() public endorserOnly requireState(State.AWAITING_ENDORSEMENT) {\n      currentState = State.VERIFIED;\n    }\n\n    function buyCarbon(uint _tons) public payable requireState(State.VERIFIED){\n      //require tons to be positive and if too large = buyableCarbon\n      require(_tons > 0, \"Tons must be a positive value\");\n      //if _tons is too high, buy all carbon remaining\n      if (_tons > buyableCarbon) {\n        _tons = buyableCarbon;\n      }\n      //calculate required msg.value from ppt + _tons\n      require(msg.value >= (ppt * _tons), \"Insufficient value sent to complete transaction.\");\n      //transfer msg.value to owner\n      ownerAddress.transfer(msg.value);\n      //subtract _tons from buyableCarbon\n      buyableCarbon = buyableCarbon - _tons;\n      //add buyer to buyers map with _tons (for address-based lookup of tonnage)\n      buyers[msg.sender] = _tons;\n      //add buyer to allBuyers array for address lookups\n      allBuyers.push(msg.sender);\n    }\n}\n",
  "sourcePath": "/Users/alektutchton/Documents/Carbos/app/contracts/C3.sol",
  "compiler": {
    "name": "solc",
    "version": "0.5.0+commit.1d4f565a.Emscripten.clang"
  },
  "schemaVersion": "3.0.1",
  "updatedAt": "2019-02-16T15:29:51.875Z",
  "devdoc": {
    "methods": {}
  },
  "userdoc": {
    "methods": {}
  }
}