{
  "contractName": "C3",
  "abi": [
    {
      "constant": true,
      "inputs": [],
      "name": "ppt",
      "outputs": [
        {
          "name": "",
          "type": "uint256"
        }
      ],
      "payable": false,
      "stateMutability": "view",
      "type": "function"
    },
    {
      "constant": true,
      "inputs": [],
      "name": "currentState",
      "outputs": [
        {
          "name": "",
          "type": "uint8"
        }
      ],
      "payable": false,
      "stateMutability": "view",
      "type": "function"
    },
    {
      "constant": true,
      "inputs": [],
      "name": "endorser",
      "outputs": [
        {
          "name": "",
          "type": "address"
        }
      ],
      "payable": false,
      "stateMutability": "view",
      "type": "function"
    },
    {
      "constant": true,
      "inputs": [],
      "name": "belowGroundCarbon",
      "outputs": [
        {
          "name": "",
          "type": "uint256"
        }
      ],
      "payable": false,
      "stateMutability": "view",
      "type": "function"
    },
    {
      "constant": true,
      "inputs": [],
      "name": "raId",
      "outputs": [
        {
          "name": "",
          "type": "uint256"
        }
      ],
      "payable": false,
      "stateMutability": "view",
      "type": "function"
    },
    {
      "constant": true,
      "inputs": [],
      "name": "aboveGroundCarbon",
      "outputs": [
        {
          "name": "",
          "type": "uint256"
        }
      ],
      "payable": false,
      "stateMutability": "view",
      "type": "function"
    },
    {
      "constant": true,
      "inputs": [],
      "name": "latitude",
      "outputs": [
        {
          "name": "",
          "type": "uint256"
        }
      ],
      "payable": false,
      "stateMutability": "view",
      "type": "function"
    },
    {
      "constant": true,
      "inputs": [],
      "name": "longitude",
      "outputs": [
        {
          "name": "",
          "type": "uint256"
        }
      ],
      "payable": false,
      "stateMutability": "view",
      "type": "function"
    },
    {
      "constant": true,
      "inputs": [],
      "name": "description",
      "outputs": [
        {
          "name": "",
          "type": "string"
        }
      ],
      "payable": false,
      "stateMutability": "view",
      "type": "function"
    },
    {
      "constant": true,
      "inputs": [],
      "name": "totalCarbon",
      "outputs": [
        {
          "name": "",
          "type": "uint256"
        }
      ],
      "payable": false,
      "stateMutability": "view",
      "type": "function"
    },
    {
      "constant": true,
      "inputs": [],
      "name": "ownerAddress",
      "outputs": [
        {
          "name": "",
          "type": "address"
        }
      ],
      "payable": false,
      "stateMutability": "view",
      "type": "function"
    },
    {
      "constant": true,
      "inputs": [
        {
          "name": "",
          "type": "uint256"
        }
      ],
      "name": "allBuyers",
      "outputs": [
        {
          "name": "",
          "type": "address"
        }
      ],
      "payable": false,
      "stateMutability": "view",
      "type": "function"
    },
    {
      "constant": true,
      "inputs": [
        {
          "name": "",
          "type": "address"
        }
      ],
      "name": "buyers",
      "outputs": [
        {
          "name": "",
          "type": "uint256"
        }
      ],
      "payable": false,
      "stateMutability": "view",
      "type": "function"
    },
    {
      "constant": true,
      "inputs": [],
      "name": "buyableCarbon",
      "outputs": [
        {
          "name": "",
          "type": "uint256"
        }
      ],
      "payable": false,
      "stateMutability": "view",
      "type": "function"
    },
    {
      "constant": true,
      "inputs": [],
      "name": "hectares",
      "outputs": [
        {
          "name": "",
          "type": "uint256"
        }
      ],
      "payable": false,
      "stateMutability": "view",
      "type": "function"
    },
    {
      "constant": true,
      "inputs": [],
      "name": "geometryHash",
      "outputs": [
        {
          "name": "",
          "type": "string"
        }
      ],
      "payable": false,
      "stateMutability": "view",
      "type": "function"
    },
    {
      "inputs": [
        {
          "name": "_totalCarbon",
          "type": "uint256"
        },
        {
          "name": "_aboveGroundCarbon",
          "type": "uint256"
        },
        {
          "name": "_belowGroundCarbon",
          "type": "uint256"
        },
        {
          "name": "_hectares",
          "type": "uint256"
        },
        {
          "name": "_latitude",
          "type": "uint256"
        },
        {
          "name": "_longitude",
          "type": "uint256"
        },
        {
          "name": "_ppt",
          "type": "uint256"
        },
        {
          "name": "_raId",
          "type": "uint256"
        },
        {
          "name": "_description",
          "type": "string"
        },
        {
          "name": "_geometryHash",
          "type": "string"
        },
        {
          "name": "_ownerAddress",
          "type": "address"
        },
        {
          "name": "_endorser",
          "type": "address"
        }
      ],
      "payable": false,
      "stateMutability": "nonpayable",
      "type": "constructor"
    },
    {
      "constant": false,
      "inputs": [],
      "name": "endorsementComplete",
      "outputs": [],
      "payable": false,
      "stateMutability": "nonpayable",
      "type": "function"
    },
    {
      "constant": false,
      "inputs": [
        {
          "name": "_tons",
          "type": "uint256"
        }
      ],
      "name": "buyCarbon",
      "outputs": [],
      "payable": true,
      "stateMutability": "payable",
      "type": "function"
    }
  ],
  "bytecode": "0x60806040523480156200001157600080fd5b5060405162000e6638038062000e6683398101806040526101808110156200003857600080fd5b8101908080519060200190929190805190602001909291908051906020019092919080519060200190929190805190602001909291908051906020019092919080519060200190929190805190602001909291908051640100000000811115620000a157600080fd5b82810190506020810184811115620000b857600080fd5b8151856001820283011164010000000082111715620000d657600080fd5b50509291906020018051640100000000811115620000f357600080fd5b828101905060208101848111156200010a57600080fd5b81518560018202830111640100000000821117156200012857600080fd5b505092919060200180519060200190929190805190602001909291905050508b6001819055508a60038190555089600481905550886005819055508760068190555086600781905550856009819055508460088190555083600a90805190602001906200019792919062000270565b5082600b9080519060200190620001b092919062000270565b5081600c60006101000a81548173ffffffffffffffffffffffffffffffffffffffff021916908373ffffffffffffffffffffffffffffffffffffffff16021790555080600d60006101000a81548173ffffffffffffffffffffffffffffffffffffffff021916908373ffffffffffffffffffffffffffffffffffffffff16021790555060008060006101000a81548160ff021916908360018111156200025257fe5b02179055508b6002819055505050505050505050505050506200031f565b828054600181600116156101000203166002900490600052602060002090601f016020900481019282601f10620002b357805160ff1916838001178555620002e4565b82800160010185558215620002e4579182015b82811115620002e3578251825591602001919060010190620002c6565b5b509050620002f39190620002f7565b5090565b6200031c91905b8082111562000318576000816000905550600101620002fe565b5090565b90565b610b37806200032f6000396000f3fe6080604052600436106100fb576000357c0100000000000000000000000000000000000000000000000000000000900463ffffffff168062328792146101005780630c3f6acf1461012b578063197881b7146101645780631a607821146101bb5780631d5d1760146101e65780632b2e1374146102115780634fd7d76a1461023c578063589af69c146102675780635d06d3d0146102925780636132995c146102a95780637284e416146102d75780637dbad26c146103675780638f84aa091461039257806393963410146103e957806397a993aa14610464578063b3f487f1146104c9578063ee2bdd48146104f4578063f8e131f01461051f575b600080fd5b34801561010c57600080fd5b506101156105af565b6040518082815260200191505060405180910390f35b34801561013757600080fd5b506101406105b5565b6040518082600181111561015057fe5b60ff16815260200191505060405180910390f35b34801561017057600080fd5b506101796105c7565b604051808273ffffffffffffffffffffffffffffffffffffffff1673ffffffffffffffffffffffffffffffffffffffff16815260200191505060405180910390f35b3480156101c757600080fd5b506101d06105ed565b6040518082815260200191505060405180910390f35b3480156101f257600080fd5b506101fb6105f3565b6040518082815260200191505060405180910390f35b34801561021d57600080fd5b506102266105f9565b6040518082815260200191505060405180910390f35b34801561024857600080fd5b506102516105ff565b6040518082815260200191505060405180910390f35b34801561027357600080fd5b5061027c610605565b6040518082815260200191505060405180910390f35b34801561029e57600080fd5b506102a761060b565b005b6102d5600480360360208110156102bf57600080fd5b81019080803590602001909291905050506106c1565b005b3480156102e357600080fd5b506102ec610941565b6040518080602001828103825283818151815260200191508051906020019080838360005b8381101561032c578082015181840152602081019050610311565b50505050905090810190601f1680156103595780820380516001836020036101000a031916815260200191505b509250505060405180910390f35b34801561037357600080fd5b5061037c6109df565b6040518082815260200191505060405180910390f35b34801561039e57600080fd5b506103a76109e5565b604051808273ffffffffffffffffffffffffffffffffffffffff1673ffffffffffffffffffffffffffffffffffffffff16815260200191505060405180910390f35b3480156103f557600080fd5b506104226004803603602081101561040c57600080fd5b8101908080359060200190929190505050610a0b565b604051808273ffffffffffffffffffffffffffffffffffffffff1673ffffffffffffffffffffffffffffffffffffffff16815260200191505060405180910390f35b34801561047057600080fd5b506104b36004803603602081101561048757600080fd5b81019080803573ffffffffffffffffffffffffffffffffffffffff169060200190929190505050610a49565b6040518082815260200191505060405180910390f35b3480156104d557600080fd5b506104de610a61565b6040518082815260200191505060405180910390f35b34801561050057600080fd5b50610509610a67565b6040518082815260200191505060405180910390f35b34801561052b57600080fd5b50610534610a6d565b6040518080602001828103825283818151815260200191508051906020019080838360005b83811015610574578082015181840152602081019050610559565b50505050905090810190601f1680156105a15780820380516001836020036101000a031916815260200191505b509250505060405180910390f35b60095481565b6000809054906101000a900460ff1681565b600d60009054906101000a900473ffffffffffffffffffffffffffffffffffffffff1681565b60045481565b60085481565b60035481565b60065481565b60075481565b600d60009054906101000a900473ffffffffffffffffffffffffffffffffffffffff1673ffffffffffffffffffffffffffffffffffffffff163373ffffffffffffffffffffffffffffffffffffffff1614151561066757600080fd5b600080600181111561067557fe5b6000809054906101000a900460ff16600181111561068f57fe5b14151561069b57600080fd5b60016000806101000a81548160ff021916908360018111156106b957fe5b021790555050565b60018060018111156106cf57fe5b6000809054906101000a900460ff1660018111156106e957fe5b1415156106f557600080fd5b60008211151561076d576040517f08c379a000000000000000000000000000000000000000000000000000000000815260040180806020018281038252601d8152602001807f546f6e73206d757374206265206120706f7369746976652076616c756500000081525060200191505060405180910390fd5b60025482111561077d5760025491505b8160095402341015151561081f576040517f08c379a00000000000000000000000000000000000000000000000000000000081526004018080602001828103825260308152602001807f496e73756666696369656e742076616c75652073656e7420746f20636f6d706c81526020017f657465207472616e73616374696f6e2e0000000000000000000000000000000081525060400191505060405180910390fd5b600c60009054906101000a900473ffffffffffffffffffffffffffffffffffffffff1673ffffffffffffffffffffffffffffffffffffffff166108fc349081150290604051600060405180830381858888f19350505050158015610887573d6000803e3d6000fd5b50816002540360028190555081600e60003373ffffffffffffffffffffffffffffffffffffffff1673ffffffffffffffffffffffffffffffffffffffff16815260200190815260200160002081905550600f3390806001815401808255809150509060018203906000526020600020016000909192909190916101000a81548173ffffffffffffffffffffffffffffffffffffffff021916908373ffffffffffffffffffffffffffffffffffffffff160217905550505050565b600a8054600181600116156101000203166002900480601f0160208091040260200160405190810160405280929190818152602001828054600181600116156101000203166002900480156109d75780601f106109ac576101008083540402835291602001916109d7565b820191906000526020600020905b8154815290600101906020018083116109ba57829003601f168201915b505050505081565b60015481565b600c60009054906101000a900473ffffffffffffffffffffffffffffffffffffffff1681565b600f81815481101515610a1a57fe5b906000526020600020016000915054906101000a900473ffffffffffffffffffffffffffffffffffffffff1681565b600e6020528060005260406000206000915090505481565b60025481565b60055481565b600b8054600181600116156101000203166002900480601f016020809104026020016040519081016040528092919081815260200182805460018160011615610100020316600290048015610b035780601f10610ad857610100808354040283529160200191610b03565b820191906000526020600020905b815481529060010190602001808311610ae657829003601f168201915b50505050508156fea165627a7a72305820c70b50754c4c3aaca79c37dd8cefb23f2d0aa865eb0f04796c42092e19cf2cc70029",
  "source": "pragma solidity ^0.5;\n\ncontract C3 {\n    enum State{\n      AWAITING_ENDORSEMENT,\n      VERIFIED\n    }\n    State public currentState;\n\n    modifier requireState(State expectedState){\n        require(currentState == expectedState);\n        _;\n    }\n\n    modifier endorserOnly(){\n        require(msg.sender == endorser);\n        _;\n    }\n\n    uint public totalCarbon;\n    uint public buyableCarbon;\n    uint public aboveGroundCarbon;\n    uint public belowGroundCarbon;\n    uint public hectares;\n    uint public latitude;\n    uint public longitude;\n    uint public raId;\n    uint public ppt;\n    string public description;\n    string public geometryHash;\n    address payable public ownerAddress;\n    address public endorser;\n    mapping(address => uint) public buyers;\n    address[] public allBuyers;  //may be reduntant storage with transactional history providing addresses\n\n    //set all params to global variables, and set buyableCarbon to _totalCarbon\n    constructor(\n      uint _totalCarbon,\n      uint _aboveGroundCarbon,\n      uint _belowGroundCarbon,\n      uint _hectares,\n      uint _latitude,\n      uint _longitude,\n      uint _ppt,\n      uint _raId,\n      string memory _description,\n      string memory _geometryHash,\n      address payable _ownerAddress,\n      address _endorser\n    ) public{\n      totalCarbon = _totalCarbon;\n      aboveGroundCarbon = _aboveGroundCarbon;\n      belowGroundCarbon = _belowGroundCarbon;\n      hectares = _hectares;\n      latitude = _latitude;\n      longitude = _longitude;\n      ppt = _ppt;\n      raId = _raId;\n      description = _description;\n      geometryHash = _geometryHash;\n      ownerAddress = _ownerAddress;\n      endorser = _endorser;\n      //local\n      currentState = State.AWAITING_ENDORSEMENT;\n      buyableCarbon = _totalCarbon; //set total buyable to total carbon\n    }\n\n    function endorsementComplete() public endorserOnly requireState(State.AWAITING_ENDORSEMENT) {\n      currentState = State.VERIFIED;\n    }\n\n    function buyCarbon(uint _tons) public payable requireState(State.VERIFIED){\n      //require tons to be positive and if too large = buyableCarbon\n      require(_tons > 0, \"Tons must be a positive value\");\n      //if _tons is too high, buy all carbon remaining\n      if (_tons > buyableCarbon) {\n        _tons = buyableCarbon;\n      }\n      //calculate required msg.value from ppt + _tons\n      require(msg.value >= (ppt * _tons), \"Insufficient value sent to complete transaction.\");\n      //transfer msg.value to owner\n      ownerAddress.transfer(msg.value);\n      //subtract _tons from buyableCarbon\n      buyableCarbon = buyableCarbon - _tons;\n      //add buyer to buyers map with _tons (for address-based lookup of tonnage)\n      buyers[msg.sender] = _tons;\n      //add buyer to allBuyers array for address lookups\n      allBuyers.push(msg.sender);\n    }\n}\n",
  "sourcePath": "/Users/ntutchton/Repositories/carbos_app/app/contracts/C3.sol",
  "compiler": {
    "name": "solc",
    "version": "0.5.0+commit.1d4f565a.Emscripten.clang"
  },
  "schemaVersion": "3.0.1",
  "updatedAt": "2019-02-11T03:32:13.762Z",
  "devdoc": {
    "methods": {}
  },
  "userdoc": {
    "methods": {}
  }
}