{
  "contractName": "C3PO",
  "abi": [
    {
      "constant": true,
      "inputs": [],
      "name": "ETHConversionRate",
      "outputs": [
        {
          "name": "",
          "type": "uint256"
        }
      ],
      "payable": false,
      "stateMutability": "view",
      "type": "function",
      "signature": "0x5b12278d"
    },
    {
      "constant": true,
      "inputs": [],
      "name": "ETHPPT",
      "outputs": [
        {
          "name": "",
          "type": "uint256"
        }
      ],
      "payable": false,
      "stateMutability": "view",
      "type": "function",
      "signature": "0xa27361dd"
    },
    {
      "constant": true,
      "inputs": [],
      "name": "USDPPT",
      "outputs": [
        {
          "name": "",
          "type": "uint256"
        }
      ],
      "payable": false,
      "stateMutability": "view",
      "type": "function",
      "signature": "0xbccc69f8"
    },
    {
      "constant": true,
      "inputs": [],
      "name": "carbos",
      "outputs": [
        {
          "name": "",
          "type": "address"
        }
      ],
      "payable": false,
      "stateMutability": "view",
      "type": "function",
      "signature": "0xedb840db"
    },
    {
      "inputs": [],
      "payable": false,
      "stateMutability": "nonpayable",
      "type": "constructor",
      "signature": "constructor"
    },
    {
      "anonymous": false,
      "inputs": [
        {
          "indexed": false,
          "name": "PPT",
          "type": "uint256"
        }
      ],
      "name": "LogNewUSDPPT",
      "type": "event",
      "signature": "0x8d6b303adfc89c5ff977100a231962a274887543d49dc1af19b53ba62826d87f"
    },
    {
      "anonymous": false,
      "inputs": [
        {
          "indexed": false,
          "name": "PPT",
          "type": "uint256"
        }
      ],
      "name": "LogNewETHPPT",
      "type": "event",
      "signature": "0xf7672011775d500bfa8ec2823f3010d4c76b44b2bfdac23bde6b4bf62019583c"
    },
    {
      "constant": false,
      "inputs": [
        {
          "name": "PPT",
          "type": "uint256"
        }
      ],
      "name": "setUSDPPT",
      "outputs": [],
      "payable": false,
      "stateMutability": "nonpayable",
      "type": "function",
      "signature": "0x93fa216f"
    }
  ],
  "bytecode": "0x608060405234801561001057600080fd5b5033600360006101000a81548173ffffffffffffffffffffffffffffffffffffffff021916908373ffffffffffffffffffffffffffffffffffffffff160217905550601e600081905550607860028190555061007961007e640100000000026401000000009004565b6100d9565b600254670de0b6b3a76400006000540281151561009757fe5b046001819055507ff7672011775d500bfa8ec2823f3010d4c76b44b2bfdac23bde6b4bf62019583c6001546040518082815260200191505060405180910390a1565b6102e9806100e86000396000f3fe60806040526004361061006d576000357c0100000000000000000000000000000000000000000000000000000000900463ffffffff1680635b12278d1461007257806393fa216f1461009d578063a27361dd146100d8578063bccc69f814610103578063edb840db1461012e575b600080fd5b34801561007e57600080fd5b50610087610185565b6040518082815260200191505060405180910390f35b3480156100a957600080fd5b506100d6600480360360208110156100c057600080fd5b810190808035906020019092919050505061018b565b005b3480156100e457600080fd5b506100ed610230565b6040518082815260200191505060405180910390f35b34801561010f57600080fd5b50610118610236565b6040518082815260200191505060405180910390f35b34801561013a57600080fd5b5061014361023c565b604051808273ffffffffffffffffffffffffffffffffffffffff1673ffffffffffffffffffffffffffffffffffffffff16815260200191505060405180910390f35b60025481565b600360009054906101000a900473ffffffffffffffffffffffffffffffffffffffff1673ffffffffffffffffffffffffffffffffffffffff163373ffffffffffffffffffffffffffffffffffffffff161415156101e757600080fd5b806000819055506101f6610262565b7f8d6b303adfc89c5ff977100a231962a274887543d49dc1af19b53ba62826d87f816040518082815260200191505060405180910390a150565b60015481565b60005481565b600360009054906101000a900473ffffffffffffffffffffffffffffffffffffffff1681565b600254670de0b6b3a76400006000540281151561027b57fe5b046001819055507ff7672011775d500bfa8ec2823f3010d4c76b44b2bfdac23bde6b4bf62019583c6001546040518082815260200191505060405180910390a156fea165627a7a72305820a00a92c807629476113add006762f659bd98a525c5af94e10570b1cf5e1ac0aa0029",
  "source": "pragma solidity ^0.5;\n\n/*\nCarbon Conservation Contract Price Oracle (C3PO)\nsets a USD per ton carbon price point that cannot be undercut\nthis prevents abuse of the deposit system in C3 creatation.\nOnly Carbos can set this price. We are using USD rather than ETH, because it's much easier to price USD against the current market.\nIn the future, we may switch this functionality to an oracle.\n*/\n\ncontract C3PO {\n\n  uint256 public USDPPT;\n  uint256 public ETHPPT;\n  uint256 public ETHConversionRate;\n  address public carbos;\n  event LogNewUSDPPT(uint PPT);\n  event LogNewETHPPT(uint PPT);\n\n  constructor() public {\n    carbos = msg.sender;\n    USDPPT = 30; //50 USD\n    //update conversion rate\n    ETHConversionRate = 120; //TEMP -> TODO UPDATE() TO ORACLE\n    setETHPPT();\n  }\n\n  modifier carbosOnly(){\n      require(msg.sender == carbos);\n      _;\n  }\n\n  function setETHPPT() internal {\n     ETHPPT = (USDPPT*10**18) / ETHConversionRate;\n     emit LogNewETHPPT(ETHPPT);\n  }\n\n  function setUSDPPT(uint PPT) public carbosOnly{\n    USDPPT = PPT;\n    //Update conversion rate\n    setETHPPT();\n    emit LogNewUSDPPT(PPT);\n  }\n\n}\n",
  "sourcePath": "/Users/alektutchton/Documents/Carbos/app/contracts/C3PO.sol",
  "compiler": {
    "name": "solc",
    "version": "0.5.0+commit.1d4f565a.Emscripten.clang"
  },
  "schemaVersion": "3.0.1",
  "updatedAt": "2019-02-16T02:49:33.805Z",
  "devdoc": {
    "methods": {}
  },
  "userdoc": {
    "methods": {}
  }
}