{
  "contractName": "Endorsement",
  "abi": [
    {
      "constant": true,
      "inputs": [
        {
          "name": "",
          "type": "address"
        }
      ],
      "name": "contracts",
      "outputs": [
        {
          "name": "classification",
          "type": "string"
        },
        {
          "name": "escrow",
          "type": "address"
        },
        {
          "name": "count",
          "type": "uint256"
        }
      ],
      "payable": false,
      "stateMutability": "view",
      "type": "function"
    },
    {
      "constant": true,
      "inputs": [],
      "name": "gaia",
      "outputs": [
        {
          "name": "",
          "type": "address"
        }
      ],
      "payable": false,
      "stateMutability": "view",
      "type": "function"
    },
    {
      "constant": true,
      "inputs": [
        {
          "name": "",
          "type": "address"
        }
      ],
      "name": "voters",
      "outputs": [
        {
          "name": "authorized",
          "type": "bool"
        }
      ],
      "payable": false,
      "stateMutability": "view",
      "type": "function"
    },
    {
      "constant": true,
      "inputs": [],
      "name": "carbos",
      "outputs": [
        {
          "name": "",
          "type": "address"
        }
      ],
      "payable": false,
      "stateMutability": "view",
      "type": "function"
    },
    {
      "inputs": [
        {
          "name": "_carbos",
          "type": "address"
        }
      ],
      "payable": true,
      "stateMutability": "payable",
      "type": "constructor"
    },
    {
      "anonymous": false,
      "inputs": [
        {
          "indexed": false,
          "name": "classification",
          "type": "string"
        },
        {
          "indexed": false,
          "name": "addr",
          "type": "address"
        },
        {
          "indexed": false,
          "name": "escrow",
          "type": "address"
        },
        {
          "indexed": false,
          "name": "count",
          "type": "uint256"
        }
      ],
      "name": "Vote",
      "type": "event"
    },
    {
      "anonymous": false,
      "inputs": [
        {
          "indexed": false,
          "name": "classification",
          "type": "string"
        },
        {
          "indexed": false,
          "name": "addr",
          "type": "address"
        },
        {
          "indexed": false,
          "name": "escrow",
          "type": "address"
        },
        {
          "indexed": false,
          "name": "count",
          "type": "uint256"
        }
      ],
      "name": "Endorsed",
      "type": "event"
    },
    {
      "anonymous": false,
      "inputs": [
        {
          "indexed": false,
          "name": "voter",
          "type": "address"
        }
      ],
      "name": "Authorized",
      "type": "event"
    },
    {
      "constant": false,
      "inputs": [
        {
          "name": "_classification",
          "type": "string"
        },
        {
          "name": "_contract",
          "type": "address"
        },
        {
          "name": "_escrow",
          "type": "address"
        }
      ],
      "name": "addContract",
      "outputs": [],
      "payable": false,
      "stateMutability": "nonpayable",
      "type": "function"
    },
    {
      "constant": false,
      "inputs": [
        {
          "name": "_voter",
          "type": "address"
        }
      ],
      "name": "authorize",
      "outputs": [],
      "payable": false,
      "stateMutability": "nonpayable",
      "type": "function"
    },
    {
      "constant": false,
      "inputs": [
        {
          "name": "_contract",
          "type": "address"
        }
      ],
      "name": "fullyEndorse",
      "outputs": [],
      "payable": false,
      "stateMutability": "nonpayable",
      "type": "function"
    },
    {
      "constant": false,
      "inputs": [
        {
          "name": "_contract",
          "type": "address"
        }
      ],
      "name": "vote",
      "outputs": [],
      "payable": false,
      "stateMutability": "nonpayable",
      "type": "function"
    }
  ],
  "bytecode": "0x60806040526040516020806113b48339810180604052602081101561002357600080fd5b810190808051906020019092919050505080600160006101000a81548173ffffffffffffffffffffffffffffffffffffffff021916908373ffffffffffffffffffffffffffffffffffffffff160217905550336000806101000a81548173ffffffffffffffffffffffffffffffffffffffff021916908373ffffffffffffffffffffffffffffffffffffffff1602179055506001600460008373ffffffffffffffffffffffffffffffffffffffff1673ffffffffffffffffffffffffffffffffffffffff16815260200190815260200160002060000160006101000a81548160ff02191690831515021790555060056002819055505061128c806101286000396000f3fe60806040526004361061008e576000357c0100000000000000000000000000000000000000000000000000000000900463ffffffff16806369dc9ff3146100935780636dd7d8ea146101975780636f07989b146101e857806394461d9914610239578063a3ec138d14610290578063b6a5d7de146102f9578063c5592be21461034a578063edb840db14610452575b600080fd5b34801561009f57600080fd5b506100e2600480360360208110156100b657600080fd5b81019080803573ffffffffffffffffffffffffffffffffffffffff1690602001909291905050506104a9565b60405180806020018473ffffffffffffffffffffffffffffffffffffffff1673ffffffffffffffffffffffffffffffffffffffff168152602001838152602001828103825285818151815260200191508051906020019080838360005b8381101561015a57808201518184015260208101905061013f565b50505050905090810190601f1680156101875780820380516001836020036101000a031916815260200191505b5094505050505060405180910390f35b3480156101a357600080fd5b506101e6600480360360208110156101ba57600080fd5b81019080803573ffffffffffffffffffffffffffffffffffffffff16906020019092919050505061058b565b005b3480156101f457600080fd5b506102376004803603602081101561020b57600080fd5b81019080803573ffffffffffffffffffffffffffffffffffffffff169060200190929190505050610a63565b005b34801561024557600080fd5b5061024e610b14565b604051808273ffffffffffffffffffffffffffffffffffffffff1673ffffffffffffffffffffffffffffffffffffffff16815260200191505060405180910390f35b34801561029c57600080fd5b506102df600480360360208110156102b357600080fd5b81019080803573ffffffffffffffffffffffffffffffffffffffff169060200190929190505050610b39565b604051808215151515815260200191505060405180910390f35b34801561030557600080fd5b506103486004803603602081101561031c57600080fd5b81019080803573ffffffffffffffffffffffffffffffffffffffff169060200190929190505050610b64565b005b34801561035657600080fd5b506104506004803603606081101561036d57600080fd5b810190808035906020019064010000000081111561038a57600080fd5b82018360208201111561039c57600080fd5b803590602001918460018302840111640100000000831117156103be57600080fd5b91908080601f016020809104026020016040519081016040528093929190818152602001838380828437600081840152601f19601f820116905080830192505050505050509192919290803573ffffffffffffffffffffffffffffffffffffffff169060200190929190803573ffffffffffffffffffffffffffffffffffffffff169060200190929190505050610c81565b005b34801561045e57600080fd5b50610467610dc4565b604051808273ffffffffffffffffffffffffffffffffffffffff1673ffffffffffffffffffffffffffffffffffffffff16815260200191505060405180910390f35b6003602052806000526040600020600091509050806000018054600181600116156101000203166002900480601f0160208091040260200160405190810160405280929190818152602001828054600181600116156101000203166002900480156105555780601f1061052a57610100808354040283529160200191610555565b820191906000526020600020905b81548152906001019060200180831161053857829003601f168201915b5050505050908060010160009054906101000a900473ffffffffffffffffffffffffffffffffffffffff16908060020154905083565b60011515600460003373ffffffffffffffffffffffffffffffffffffffff1673ffffffffffffffffffffffffffffffffffffffff16815260200190815260200160002060000160009054906101000a900460ff161515141515610656576040517f08c379a00000000000000000000000000000000000000000000000000000000081526004018080602001828103825260168152602001807f4e6f7420617574686f72697a656420746f20766f74650000000000000000000081525060200191505060405180910390fd5b6000600460003373ffffffffffffffffffffffffffffffffffffffff1673ffffffffffffffffffffffffffffffffffffffff16815260200190815260200160002060010160008373ffffffffffffffffffffffffffffffffffffffff1673ffffffffffffffffffffffffffffffffffffffff16815260200190815260200160002054141515610773576040517f08c379a00000000000000000000000000000000000000000000000000000000081526004018080602001828103825260238152602001807f566f7465722068617320616c726561647920766f74656420666f72207468697381526020017f204333000000000000000000000000000000000000000000000000000000000081525060400191505060405180910390fd5b6001600460003373ffffffffffffffffffffffffffffffffffffffff1673ffffffffffffffffffffffffffffffffffffffff16815260200190815260200160002060010160008373ffffffffffffffffffffffffffffffffffffffff1673ffffffffffffffffffffffffffffffffffffffff168152602001908152602001600020819055506001600360008373ffffffffffffffffffffffffffffffffffffffff1673ffffffffffffffffffffffffffffffffffffffff168152602001908152602001600020600201600082825401925050819055507f8a042098e1a2f4812a63615e616d7ad6458662f2ebed8a1e7d5fcb657de504fa600360008373ffffffffffffffffffffffffffffffffffffffff1673ffffffffffffffffffffffffffffffffffffffff16815260200190815260200160002060000182600360008573ffffffffffffffffffffffffffffffffffffffff1673ffffffffffffffffffffffffffffffffffffffff16815260200190815260200160002060010160009054906101000a900473ffffffffffffffffffffffffffffffffffffffff16600360008673ffffffffffffffffffffffffffffffffffffffff1673ffffffffffffffffffffffffffffffffffffffff1681526020019081526020016000206002015460405180806020018573ffffffffffffffffffffffffffffffffffffffff1673ffffffffffffffffffffffffffffffffffffffff1681526020018473ffffffffffffffffffffffffffffffffffffffff1673ffffffffffffffffffffffffffffffffffffffff168152602001838152602001828103825286818154600181600116156101000203166002900481526020019150805460018160011615610100020316600290048015610a465780601f10610a1b57610100808354040283529160200191610a46565b820191906000526020600020905b815481529060010190602001808311610a2957829003601f168201915b50509550505050505060405180910390a1610a6081610dea565b50565b600160009054906101000a900473ffffffffffffffffffffffffffffffffffffffff1673ffffffffffffffffffffffffffffffffffffffff163373ffffffffffffffffffffffffffffffffffffffff16141515610abf57600080fd5b600254600360008373ffffffffffffffffffffffffffffffffffffffff1673ffffffffffffffffffffffffffffffffffffffff16815260200190815260200160002060020181905550610b1181610dea565b50565b6000809054906101000a900473ffffffffffffffffffffffffffffffffffffffff1681565b60046020528060005260406000206000915090508060000160009054906101000a900460ff16905081565b600160009054906101000a900473ffffffffffffffffffffffffffffffffffffffff1673ffffffffffffffffffffffffffffffffffffffff163373ffffffffffffffffffffffffffffffffffffffff16141515610bc057600080fd5b6001600460008373ffffffffffffffffffffffffffffffffffffffff1673ffffffffffffffffffffffffffffffffffffffff16815260200190815260200160002060000160006101000a81548160ff0219169083151502179055507fdc84e3a4c83602050e3865df792a4e6800211a79ac60db94e703a820ce89292481604051808273ffffffffffffffffffffffffffffffffffffffff1673ffffffffffffffffffffffffffffffffffffffff16815260200191505060405180910390a150565b6000809054906101000a900473ffffffffffffffffffffffffffffffffffffffff1673ffffffffffffffffffffffffffffffffffffffff163373ffffffffffffffffffffffffffffffffffffffff16141515610cdc57600080fd5b6060604051908101604052808481526020018273ffffffffffffffffffffffffffffffffffffffff1681526020016000815250600360008473ffffffffffffffffffffffffffffffffffffffff1673ffffffffffffffffffffffffffffffffffffffff1681526020019081526020016000206000820151816000019080519060200190610d6a9291906111bb565b5060208201518160010160006101000a81548173ffffffffffffffffffffffffffffffffffffffff021916908373ffffffffffffffffffffffffffffffffffffffff16021790555060408201518160020155905050505050565b600160009054906101000a900473ffffffffffffffffffffffffffffffffffffffff1681565b600254600360008373ffffffffffffffffffffffffffffffffffffffff1673ffffffffffffffffffffffffffffffffffffffff1681526020019081526020016000206002015410151561104f57610e4081611052565b7f1f1adde87fc0bf53e69d5666ba843f3ab5b5d7c1e6c6c83b5195fee80762ec4d600360008373ffffffffffffffffffffffffffffffffffffffff1673ffffffffffffffffffffffffffffffffffffffff16815260200190815260200160002060000182600360008573ffffffffffffffffffffffffffffffffffffffff1673ffffffffffffffffffffffffffffffffffffffff16815260200190815260200160002060010160009054906101000a900473ffffffffffffffffffffffffffffffffffffffff16600360008673ffffffffffffffffffffffffffffffffffffffff1673ffffffffffffffffffffffffffffffffffffffff1681526020019081526020016000206002015460405180806020018573ffffffffffffffffffffffffffffffffffffffff1673ffffffffffffffffffffffffffffffffffffffff1681526020018473ffffffffffffffffffffffffffffffffffffffff1673ffffffffffffffffffffffffffffffffffffffff16815260200183815260200182810382528681815460018160011615610100020316600290048152602001915080546001816001161561010002031660029004801561103d5780601f106110125761010080835404028352916020019161103d565b820191906000526020600020905b81548152906001019060200180831161102057829003601f168201915b50509550505050505060405180910390a15b50565b60008190508073ffffffffffffffffffffffffffffffffffffffff16635d06d3d06040518163ffffffff167c0100000000000000000000000000000000000000000000000000000000028152600401600060405180830381600087803b1580156110bb57600080fd5b505af11580156110cf573d6000803e3d6000fd5b505050506000600360008473ffffffffffffffffffffffffffffffffffffffff1673ffffffffffffffffffffffffffffffffffffffff16815260200190815260200160002060010160009054906101000a900473ffffffffffffffffffffffffffffffffffffffff1690508073ffffffffffffffffffffffffffffffffffffffff16635d06d3d06040518163ffffffff167c0100000000000000000000000000000000000000000000000000000000028152600401600060405180830381600087803b15801561119e57600080fd5b505af11580156111b2573d6000803e3d6000fd5b50505050505050565b828054600181600116156101000203166002900490600052602060002090601f016020900481019282601f106111fc57805160ff191683800117855561122a565b8280016001018555821561122a579182015b8281111561122957825182559160200191906001019061120e565b5b509050611237919061123b565b5090565b61125d91905b80821115611259576000816000905550600101611241565b5090565b9056fea165627a7a72305820a6731f2fac1bc944350115bcbf274ceb47cdcba0fa32d9f096d268cbad4bec500029",
  "source": "pragma solidity ^0.5;\n\nimport \"./Escrow.sol\";\nimport \"./C3.sol\";\n\ncontract Endorsement {\n    address public gaia;\n    address public carbos;\n    uint internal requiredEndorsements;\n\n    // emitied on successful vote\n    event Vote(\n      string classification,\n      address addr,\n      address escrow,\n      uint count\n    );\n\n    //emitted on full endorsement\n    event Endorsed(\n      string classification,\n      address addr,\n      address escrow,\n      uint count\n    );\n\n    event Authorized(\n      address voter\n    );\n\n    //actual store for number of votes\n    struct Contract{\n      string  classification;//type\n      address escrow; //affiliated escrow holding account\n      uint    count; //numVotes\n    }\n\n    struct Voter{\n      bool authorized;\n      mapping(address => uint) voted; //can only vote one tile on address (true = has voted)\n    }\n\n    modifier carbosOnly(){\n      require(msg.sender == carbos);\n      _;\n    }\n\n    modifier gaiaOnly(){\n      require(msg.sender == gaia);\n      _;\n    }\n\n    modifier isAuthorized() {\n      require(voters[msg.sender].authorized == true, \"Not authorized to vote\");\n      _;\n    }\n\n    mapping(address => Contract) public contracts; //lookup for Contract's endorsement status\n    mapping(address => Voter) public voters; //lookup for voters voting status on a contract\n\n    constructor(address _carbos) public payable{\n      carbos = _carbos;\n      gaia = msg.sender;\n      voters[_carbos].authorized = true;\n      requiredEndorsements = 5;\n    }\n\n\n\n    //gaia needs to ensure that Contract and Escrow accounts are corrent otherwise this is abusable\n    function addContract(string memory _classification, address _contract, address _escrow) public gaiaOnly {\n      contracts[_contract] = Contract(_classification, _escrow, 0);\n    }\n\n    //carbos can add voters to authorized mapping of voters\n    function authorize(address _voter) public carbosOnly{\n        voters[_voter].authorized = true;\n        emit Authorized(_voter);\n    }\n\n    //carbos can fully release an endoresement\n    function fullyEndorse(address _contract) public carbosOnly{\n        contracts[_contract].count = requiredEndorsements;\n        checkForRelease(_contract);\n    }\n\n    function vote(address _contract) public isAuthorized{\n      require(voters[msg.sender].voted[_contract] == 0, \"Voter has already voted for this C3\");\n      //voter has used their one vote\n      voters[msg.sender].voted[_contract] = 1;\n      //increment endorsements on Contract struct\n      contracts[_contract].count += 1;\n\n      emit Vote(\n        contracts[_contract].classification,\n        _contract,\n        contracts[_contract].escrow,\n        contracts[_contract].count\n      );\n      //see if releaseDeposit can be called\n      checkForRelease(_contract);\n    }\n\n    function checkForRelease(address _contract) internal {\n      //release is count > requiredEndorsements\n      if(contracts[_contract].count >= requiredEndorsements) {\n        releaseC3Deposit(_contract);\n\n        emit Endorsed(\n          contracts[_contract].classification,\n          _contract,\n          contracts[_contract].escrow,\n          contracts[_contract].count\n        );\n      }\n    }\n\n    function releaseC3Deposit(address _contract) internal {\n      //verify c3\n      C3 c3 = C3(_contract);\n      c3.endorsementComplete();\n\n      // release escrow\n      Escrow deposit = Escrow(contracts[_contract].escrow);\n      deposit.endorsementComplete();\n    }\n\n}\n",
  "sourcePath": "/Users/alektutchton/Documents/Carbos/app/contracts/Endorsement.sol",
  "compiler": {
    "name": "solc",
    "version": "0.5.0+commit.1d4f565a.Emscripten.clang"
  },
  "schemaVersion": "3.0.1",
  "updatedAt": "2019-02-16T15:29:51.881Z",
  "devdoc": {
    "methods": {}
  },
  "userdoc": {
    "methods": {}
  }
}