{
  "contractName": "Escrow",
  "abi": [
    {
      "constant": true,
      "inputs": [],
      "name": "forfeitDate",
      "outputs": [
        {
          "name": "",
          "type": "uint256"
        }
      ],
      "payable": false,
      "stateMutability": "view",
      "type": "function"
    },
    {
      "constant": true,
      "inputs": [],
      "name": "currentState",
      "outputs": [
        {
          "name": "",
          "type": "uint8"
        }
      ],
      "payable": false,
      "stateMutability": "view",
      "type": "function"
    },
    {
      "constant": true,
      "inputs": [],
      "name": "endorser",
      "outputs": [
        {
          "name": "",
          "type": "address"
        }
      ],
      "payable": false,
      "stateMutability": "view",
      "type": "function"
    },
    {
      "constant": true,
      "inputs": [],
      "name": "expiredDate",
      "outputs": [
        {
          "name": "",
          "type": "uint256"
        }
      ],
      "payable": false,
      "stateMutability": "view",
      "type": "function"
    },
    {
      "constant": true,
      "inputs": [],
      "name": "deployer",
      "outputs": [
        {
          "name": "",
          "type": "address"
        }
      ],
      "payable": false,
      "stateMutability": "view",
      "type": "function"
    },
    {
      "constant": true,
      "inputs": [],
      "name": "carbos",
      "outputs": [
        {
          "name": "",
          "type": "address"
        }
      ],
      "payable": false,
      "stateMutability": "view",
      "type": "function"
    },
    {
      "inputs": [
        {
          "name": "_deployer",
          "type": "address"
        },
        {
          "name": "_endorser",
          "type": "address"
        },
        {
          "name": "_carbos",
          "type": "address"
        }
      ],
      "payable": true,
      "stateMutability": "payable",
      "type": "constructor"
    },
    {
      "constant": false,
      "inputs": [],
      "name": "endorsementComplete",
      "outputs": [],
      "payable": false,
      "stateMutability": "nonpayable",
      "type": "function"
    },
    {
      "constant": false,
      "inputs": [],
      "name": "cancel",
      "outputs": [],
      "payable": false,
      "stateMutability": "nonpayable",
      "type": "function"
    },
    {
      "constant": false,
      "inputs": [],
      "name": "forfeit",
      "outputs": [],
      "payable": false,
      "stateMutability": "nonpayable",
      "type": "function"
    }
  ],
  "bytecode": "0x608060405260405160608061099a8339810180604052606081101561002357600080fd5b8101908080519060200190929190805190602001909291908051906020019092919050505060003411156100755760008060006101000a81548160ff0219169083600381111561006f57fe5b02179055505b81600060016101000a81548173ffffffffffffffffffffffffffffffffffffffff021916908373ffffffffffffffffffffffffffffffffffffffff16021790555080600160006101000a81548173ffffffffffffffffffffffffffffffffffffffff021916908373ffffffffffffffffffffffffffffffffffffffff16021790555082600260006101000a81548173ffffffffffffffffffffffffffffffffffffffff021916908373ffffffffffffffffffffffffffffffffffffffff16021790555062278d004201600381905550624f1a004201600481905550505050610838806101626000396000f3fe608060405260043610610099576000357c0100000000000000000000000000000000000000000000000000000000900463ffffffff1680630589d1881461009e5780630c3f6acf146100c9578063197881b71461010257806359ecea50146101595780635d06d3d014610184578063d5f394881461019b578063ea8a1af0146101f2578063edb840db14610209578063f3d86e4a14610260575b600080fd5b3480156100aa57600080fd5b506100b3610277565b6040518082815260200191505060405180910390f35b3480156100d557600080fd5b506100de61027d565b604051808260038111156100ee57fe5b60ff16815260200191505060405180910390f35b34801561010e57600080fd5b5061011761028f565b604051808273ffffffffffffffffffffffffffffffffffffffff1673ffffffffffffffffffffffffffffffffffffffff16815260200191505060405180910390f35b34801561016557600080fd5b5061016e6102b5565b6040518082815260200191505060405180910390f35b34801561019057600080fd5b506101996102bb565b005b3480156101a757600080fd5b506101b061050f565b604051808273ffffffffffffffffffffffffffffffffffffffff1673ffffffffffffffffffffffffffffffffffffffff16815260200191505060405180910390f35b3480156101fe57600080fd5b50610207610535565b005b34801561021557600080fd5b5061021e610636565b604051808273ffffffffffffffffffffffffffffffffffffffff1673ffffffffffffffffffffffffffffffffffffffff16815260200191505060405180910390f35b34801561026c57600080fd5b5061027561065c565b005b60045481565b6000809054906101000a900460ff1681565b600060019054906101000a900473ffffffffffffffffffffffffffffffffffffffff1681565b60035481565b600060019054906101000a900473ffffffffffffffffffffffffffffffffffffffff1673ffffffffffffffffffffffffffffffffffffffff163373ffffffffffffffffffffffffffffffffffffffff1614806103645750600160009054906101000a900473ffffffffffffffffffffffffffffffffffffffff1673ffffffffffffffffffffffffffffffffffffffff163373ffffffffffffffffffffffffffffffffffffffff16145b151561036f57600080fd5b600080600381111561037d57fe5b6000809054906101000a900460ff16600381111561039757fe5b1415156103a357600080fd5b6003544211151515610469576040517f08c379a000000000000000000000000000000000000000000000000000000000815260040180806020018281038252604a8152602001807f436f6e747261637420456e646f7273656d656e742057696e646f77206861732081526020017f656e6465642e2046756e6473206d6179206265207265636f76657261626c652081526020017f627920436172626f732e0000000000000000000000000000000000000000000081525060600191505060405180910390fd5b600260009054906101000a900473ffffffffffffffffffffffffffffffffffffffff1673ffffffffffffffffffffffffffffffffffffffff166108fc3073ffffffffffffffffffffffffffffffffffffffff16319081150290604051600060405180830381858888f193505050501580156104e8573d6000803e3d6000fd5b5060016000806101000a81548160ff0219169083600381111561050757fe5b021790555050565b600260009054906101000a900473ffffffffffffffffffffffffffffffffffffffff1681565b600160009054906101000a900473ffffffffffffffffffffffffffffffffffffffff1673ffffffffffffffffffffffffffffffffffffffff163373ffffffffffffffffffffffffffffffffffffffff1614151561059157600080fd5b600260009054906101000a900473ffffffffffffffffffffffffffffffffffffffff1673ffffffffffffffffffffffffffffffffffffffff166108fc3073ffffffffffffffffffffffffffffffffffffffff16319081150290604051600060405180830381858888f19350505050158015610610573d6000803e3d6000fd5b5060026000806101000a81548160ff0219169083600381111561062f57fe5b0217905550565b600160009054906101000a900473ffffffffffffffffffffffffffffffffffffffff1681565b600160009054906101000a900473ffffffffffffffffffffffffffffffffffffffff1673ffffffffffffffffffffffffffffffffffffffff163373ffffffffffffffffffffffffffffffffffffffff161415156106b857600080fd5b60008060038111156106c657fe5b6000809054906101000a900460ff1660038111156106e057fe5b1415156106ec57600080fd5b6004544210151515610766576040517f08c379a00000000000000000000000000000000000000000000000000000000081526004018080602001828103825260198152602001807f436f6e7472616374206973207374696c6c206163746976652e0000000000000081525060200191505060405180910390fd5b600160009054906101000a900473ffffffffffffffffffffffffffffffffffffffff1673ffffffffffffffffffffffffffffffffffffffff166108fc3073ffffffffffffffffffffffffffffffffffffffff16319081150290604051600060405180830381858888f193505050501580156107e5573d6000803e3d6000fd5b5060036000806101000a81548160ff0219169083600381111561080457fe5b02179055505056fea165627a7a72305820fdd7aa99e0a355abf49030747841640537f6093f16af7dcd1854e48c76c0f36c0029",
  "source": "pragma solidity ^0.5;\n\ncontract Escrow {\n    enum State{\n        AWAITING_ENDORSEMENT,\n        COMPLETE,\n        CANCELED,\n        FORFEIT\n    }\n    State public currentState;\n\n    modifier requireState(State expectedState){\n        require(currentState == expectedState);\n        _;\n    }\n\n    modifier carbosOnly(){\n        require(msg.sender == carbos);\n        _;\n    }\n\n    modifier endorserOnly(){\n        require(msg.sender == endorser || msg.sender == carbos);\n        _;\n    }\n\n    address public endorser;\n    address payable public carbos;\n    address payable public deployer;\n    uint public expiredDate;\n    uint public forfeitDate;\n\n    constructor(address payable _deployer, address _endorser, address payable _carbos) payable public {\n        //receives the proper 5% balance on creation from gaia\n        if (msg.value > 0) {\n          currentState = State.AWAITING_ENDORSEMENT;\n        }\n        //assign addresses and timestamps\n        endorser = _endorser;\n        carbos = _carbos;\n        deployer = _deployer;\n        expiredDate = now + (30 * 1 days);\n        forfeitDate = now + (60 * 1 days);\n    }\n\n    function endorsementComplete() public endorserOnly requireState(State.AWAITING_ENDORSEMENT){\n        //action must be completed within 30 days of contract creation\n        require(now <= expiredDate, \"Contract Endorsement Window has ended. Funds may be recoverable by Carbos.\");\n        deployer.transfer(address(this).balance);\n        currentState = State.COMPLETE;\n    }\n\n    function cancel() public carbosOnly {\n        //if needed, can return balance and cancel the escrow\n        deployer.transfer(address(this).balance);\n        currentState = State.CANCELED;\n    }\n\n    function forfeit() public carbosOnly requireState(State.AWAITING_ENDORSEMENT){\n        //after 60 days, can only transfer funds to _carbos\n        require(now >= forfeitDate, \"Contract is still active.\");\n        carbos.transfer(address(this).balance);\n        currentState = State.FORFEIT;\n    }\n}\n",
  "sourcePath": "/Users/alektutchton/Documents/Carbos/app/contracts/Escrow.sol",
  "compiler": {
    "name": "solc",
    "version": "0.5.0+commit.1d4f565a.Emscripten.clang"
  },
  "schemaVersion": "3.0.1",
  "updatedAt": "2019-02-16T02:02:20.426Z",
  "devdoc": {
    "methods": {}
  },
  "userdoc": {
    "methods": {}
  }
}