{
  "contractName": "Gaia",
  "abi": [
    {
      "constant": true,
      "inputs": [],
      "name": "endorser",
      "outputs": [
        {
          "name": "",
          "type": "address"
        }
      ],
      "payable": false,
      "stateMutability": "view",
      "type": "function",
      "signature": "0x197881b7"
    },
    {
      "constant": true,
      "inputs": [
        {
          "name": "",
          "type": "address"
        },
        {
          "name": "",
          "type": "uint256"
        }
      ],
      "name": "users",
      "outputs": [
        {
          "name": "",
          "type": "address"
        }
      ],
      "payable": false,
      "stateMutability": "view",
      "type": "function",
      "signature": "0x54a02f9e"
    },
    {
      "constant": true,
      "inputs": [],
      "name": "endorsement",
      "outputs": [
        {
          "name": "",
          "type": "address"
        }
      ],
      "payable": false,
      "stateMutability": "view",
      "type": "function",
      "signature": "0x629a4b52"
    },
    {
      "constant": true,
      "inputs": [
        {
          "name": "",
          "type": "address"
        }
      ],
      "name": "c3s",
      "outputs": [
        {
          "name": "",
          "type": "address"
        }
      ],
      "payable": false,
      "stateMutability": "view",
      "type": "function",
      "signature": "0x68c5e8f4"
    },
    {
      "constant": true,
      "inputs": [
        {
          "name": "",
          "type": "uint256"
        }
      ],
      "name": "allC3s",
      "outputs": [
        {
          "name": "",
          "type": "address"
        }
      ],
      "payable": false,
      "stateMutability": "view",
      "type": "function",
      "signature": "0x731617e8"
    },
    {
      "constant": true,
      "inputs": [],
      "name": "c3po",
      "outputs": [
        {
          "name": "",
          "type": "address"
        }
      ],
      "payable": false,
      "stateMutability": "view",
      "type": "function",
      "signature": "0xb162c177"
    },
    {
      "constant": true,
      "inputs": [],
      "name": "carbos",
      "outputs": [
        {
          "name": "",
          "type": "address"
        }
      ],
      "payable": false,
      "stateMutability": "view",
      "type": "function",
      "signature": "0xedb840db"
    },
    {
      "inputs": [],
      "payable": false,
      "stateMutability": "nonpayable",
      "type": "constructor",
      "signature": "constructor"
    },
    {
      "anonymous": false,
      "inputs": [
        {
          "indexed": false,
          "name": "contractAddress",
          "type": "address"
        },
        {
          "indexed": false,
          "name": "escrowAddress",
          "type": "address"
        }
      ],
      "name": "Generated",
      "type": "event",
      "signature": "0x3727254bf3ae2349672683a5e4e52225981689cf0bbe4f5c9a0bc4e2a0003bcd"
    },
    {
      "constant": false,
      "inputs": [
        {
          "name": "_totalCarbon",
          "type": "uint256"
        },
        {
          "name": "_aboveGroundCarbon",
          "type": "uint256"
        },
        {
          "name": "_belowGroundCarbon",
          "type": "uint256"
        },
        {
          "name": "_hectares",
          "type": "uint256"
        },
        {
          "name": "_latitude",
          "type": "int256"
        },
        {
          "name": "_longitude",
          "type": "int256"
        },
        {
          "name": "_raId",
          "type": "uint256"
        },
        {
          "name": "_ppt",
          "type": "uint256"
        },
        {
          "name": "_description",
          "type": "string"
        },
        {
          "name": "_geometryHash",
          "type": "string"
        }
      ],
      "name": "genC3",
      "outputs": [],
      "payable": true,
      "stateMutability": "payable",
      "type": "function",
      "signature": "0x7264943e"
    },
    {
      "constant": true,
      "inputs": [
        {
          "name": "userAddress",
          "type": "address"
        }
      ],
      "name": "getUsersC3",
      "outputs": [
        {
          "name": "",
          "type": "address[]"
        }
      ],
      "payable": false,
      "stateMutability": "view",
      "type": "function",
      "signature": "0x9cff936c"
    }
  ],
  "bytecode": "0x608060405234801561001057600080fd5b50336000806101000a81548173ffffffffffffffffffffffffffffffffffffffff021916908373ffffffffffffffffffffffffffffffffffffffff1602179055503361005a6101ba565b808273ffffffffffffffffffffffffffffffffffffffff1673ffffffffffffffffffffffffffffffffffffffff168152602001915050604051809103906000f0801580156100ac573d6000803e3d6000fd5b50600160006101000a81548173ffffffffffffffffffffffffffffffffffffffff021916908373ffffffffffffffffffffffffffffffffffffffff1602179055506100f56101cb565b604051809103906000f080158015610111573d6000803e3d6000fd5b50600360006101000a81548173ffffffffffffffffffffffffffffffffffffffff021916908373ffffffffffffffffffffffffffffffffffffffff160217905550600160009054906101000a900473ffffffffffffffffffffffffffffffffffffffff16600260006101000a81548173ffffffffffffffffffffffffffffffffffffffff021916908373ffffffffffffffffffffffffffffffffffffffff1602179055506101dc565b6040516114428062002cef83390190565b6040516103d1806200413183390190565b612b0380620001ec6000396000f3fe608060405260043610620000a3576000357c0100000000000000000000000000000000000000000000000000000000900463ffffffff168063197881b714620000a857806354a02f9e1462000102578063629a4b5214620001a157806368c5e8f414620001fb5780637264943e1462000290578063731617e8146200043c5780639cff936c14620004bb578063b162c1771462000567578063edb840db14620005c1575b600080fd5b348015620000b557600080fd5b50620000c06200061b565b604051808273ffffffffffffffffffffffffffffffffffffffff1673ffffffffffffffffffffffffffffffffffffffff16815260200191505060405180910390f35b3480156200010f57600080fd5b506200015f600480360360408110156200012857600080fd5b81019080803573ffffffffffffffffffffffffffffffffffffffff1690602001909291908035906020019092919050505062000641565b604051808273ffffffffffffffffffffffffffffffffffffffff1673ffffffffffffffffffffffffffffffffffffffff16815260200191505060405180910390f35b348015620001ae57600080fd5b50620001b96200068f565b604051808273ffffffffffffffffffffffffffffffffffffffff1673ffffffffffffffffffffffffffffffffffffffff16815260200191505060405180910390f35b3480156200020857600080fd5b506200024e600480360360208110156200022157600080fd5b81019080803573ffffffffffffffffffffffffffffffffffffffff169060200190929190505050620006b5565b604051808273ffffffffffffffffffffffffffffffffffffffff1673ffffffffffffffffffffffffffffffffffffffff16815260200191505060405180910390f35b6200043a6004803603610140811015620002a957600080fd5b810190808035906020019092919080359060200190929190803590602001909291908035906020019092919080359060200190929190803590602001909291908035906020019092919080359060200190929190803590602001906401000000008111156200031757600080fd5b8201836020820111156200032a57600080fd5b803590602001918460018302840111640100000000831117156200034d57600080fd5b91908080601f016020809104026020016040519081016040528093929190818152602001838380828437600081840152601f19601f82011690508083019250505050505050919291929080359060200190640100000000811115620003b157600080fd5b820183602082011115620003c457600080fd5b80359060200191846001830284011164010000000083111715620003e757600080fd5b91908080601f016020809104026020016040519081016040528093929190818152602001838380828437600081840152601f19601f820116905080830192505050505050509192919290505050620006e8565b005b3480156200044957600080fd5b5062000479600480360360208110156200046257600080fd5b81019080803590602001909291905050506200115c565b604051808273ffffffffffffffffffffffffffffffffffffffff1673ffffffffffffffffffffffffffffffffffffffff16815260200191505060405180910390f35b348015620004c857600080fd5b506200050e60048036036020811015620004e157600080fd5b81019080803573ffffffffffffffffffffffffffffffffffffffff1690602001909291905050506200119b565b6040518080602001828103825283818151815260200191508051906020019060200280838360005b838110156200055357808201518184015260208101905062000536565b505050509050019250505060405180910390f35b3480156200057457600080fd5b506200057f6200126a565b604051808273ffffffffffffffffffffffffffffffffffffffff1673ffffffffffffffffffffffffffffffffffffffff16815260200191505060405180910390f35b348015620005ce57600080fd5b50620005d962001290565b604051808273ffffffffffffffffffffffffffffffffffffffff1673ffffffffffffffffffffffffffffffffffffffff16815260200191505060405180910390f35b600160009054906101000a900473ffffffffffffffffffffffffffffffffffffffff1681565b6005602052816000526040600020818154811015156200065d57fe5b906000526020600020016000915091509054906101000a900473ffffffffffffffffffffffffffffffffffffffff1681565b600260009054906101000a900473ffffffffffffffffffffffffffffffffffffffff1681565b60066020528060005260406000206000915054906101000a900473ffffffffffffffffffffffffffffffffffffffff1681565b600360009054906101000a900473ffffffffffffffffffffffffffffffffffffffff1673ffffffffffffffffffffffffffffffffffffffff1663a27361dd6040518163ffffffff167c010000000000000000000000000000000000000000000000000000000002815260040160206040518083038186803b1580156200076d57600080fd5b505afa15801562000782573d6000803e3d6000fd5b505050506040513d60208110156200079957600080fd5b81019080805190602001909291905050508310156200087757600360009054906101000a900473ffffffffffffffffffffffffffffffffffffffff1673ffffffffffffffffffffffffffffffffffffffff1663a27361dd6040518163ffffffff167c010000000000000000000000000000000000000000000000000000000002815260040160206040518083038186803b1580156200083757600080fd5b505afa1580156200084c573d6000803e3d6000fd5b505050506040513d60208110156200086357600080fd5b810190808051906020019092919050505092505b6014670de0b6b3a76400008b8115156200088d57fe5b0484028115156200089a57fe5b0434101515156200095f576040517f08c379a000000000000000000000000000000000000000000000000000000000815260040180806020018281038252604c8152602001807f4d65737361676520646964206e6f7420636f6e7461696e2061206c617267652081526020017f656e6f756768206465706f7369742e20204578706563746564203525206f662081526020017f746f74616c2076616c75652e000000000000000000000000000000000000000081525060600191505060405180910390fd5b60008a8a8a8a8a8a898b8a8a33600260009054906101000a900473ffffffffffffffffffffffffffffffffffffffff1662000999620012b5565b808d81526020018c81526020018b81526020018a815260200189815260200188815260200187815260200186815260200180602001806020018573ffffffffffffffffffffffffffffffffffffffff1673ffffffffffffffffffffffffffffffffffffffff1681526020018473ffffffffffffffffffffffffffffffffffffffff1673ffffffffffffffffffffffffffffffffffffffff168152602001838103835287818151815260200191508051906020019080838360005b8381101562000a7057808201518184015260208101905062000a53565b50505050905090810190601f16801562000a9e5780820380516001836020036101000a031916815260200191505b50838103825286818151815260200191508051906020019080838360005b8381101562000ad957808201518184015260208101905062000abc565b50505050905090810190601f16801562000b075780820380516001836020036101000a031916815260200191505b509e505050505050505050505050505050604051809103906000f08015801562000b35573d6000803e3d6000fd5b5090508060078273ffffffffffffffffffffffffffffffffffffffff1663f8e131f06040518163ffffffff167c010000000000000000000000000000000000000000000000000000000002815260040160006040518083038186803b15801562000b9e57600080fd5b505afa15801562000bb3573d6000803e3d6000fd5b505050506040513d6000823e3d601f19601f82011682018060405250602081101562000bde57600080fd5b81019080805164010000000081111562000bf757600080fd5b8281019050602081018481111562000c0e57600080fd5b815185600182028301116401000000008211171562000c2c57600080fd5b50509291905050506040518082805190602001908083835b60208310151562000c6b578051825260208201915060208101905060208303925062000c44565b6001836020036101000a038019825116818451168082178552505050505050905001915050908152602001604051809103902060006101000a81548173ffffffffffffffffffffffffffffffffffffffff021916908373ffffffffffffffffffffffffffffffffffffffff16021790555033600660008373ffffffffffffffffffffffffffffffffffffffff1673ffffffffffffffffffffffffffffffffffffffff16815260200190815260200160002060006101000a81548173ffffffffffffffffffffffffffffffffffffffff021916908373ffffffffffffffffffffffffffffffffffffffff160217905550600560003373ffffffffffffffffffffffffffffffffffffffff1673ffffffffffffffffffffffffffffffffffffffff1681526020019081526020016000208190806001815401808255809150509060018203906000526020600020016000909192909190916101000a81548173ffffffffffffffffffffffffffffffffffffffff021916908373ffffffffffffffffffffffffffffffffffffffff1602179055505060048190806001815401808255809150509060018203906000526020600020016000909192909190916101000a81548173ffffffffffffffffffffffffffffffffffffffff021916908373ffffffffffffffffffffffffffffffffffffffff1602179055505060003433600160009054906101000a900473ffffffffffffffffffffffffffffffffffffffff166000809054906101000a900473ffffffffffffffffffffffffffffffffffffffff1662000eb6620012c6565b808473ffffffffffffffffffffffffffffffffffffffff1673ffffffffffffffffffffffffffffffffffffffff1681526020018373ffffffffffffffffffffffffffffffffffffffff1673ffffffffffffffffffffffffffffffffffffffff1681526020018273ffffffffffffffffffffffffffffffffffffffff1673ffffffffffffffffffffffffffffffffffffffff16815260200193505050506040518091039082f08015801562000f6e573d6000803e3d6000fd5b5090509050600160009054906101000a900473ffffffffffffffffffffffffffffffffffffffff1673ffffffffffffffffffffffffffffffffffffffff1663c5592be283836040518363ffffffff167c010000000000000000000000000000000000000000000000000000000002815260040180806020018473ffffffffffffffffffffffffffffffffffffffff1673ffffffffffffffffffffffffffffffffffffffff1681526020018373ffffffffffffffffffffffffffffffffffffffff1673ffffffffffffffffffffffffffffffffffffffff1681526020018281038252601c8152602001807f436172626f6e20436f6e736572766174696f6e20436f6e7472616374000000008152506020019350505050600060405180830381600087803b1580156200109e57600080fd5b505af1158015620010b3573d6000803e3d6000fd5b505050507f3727254bf3ae2349672683a5e4e52225981689cf0bbe4f5c9a0bc4e2a0003bcd8282604051808373ffffffffffffffffffffffffffffffffffffffff1673ffffffffffffffffffffffffffffffffffffffff1681526020018273ffffffffffffffffffffffffffffffffffffffff1673ffffffffffffffffffffffffffffffffffffffff1681526020019250505060405180910390a1505050505050505050505050565b6004818154811015156200116c57fe5b906000526020600020016000915054906101000a900473ffffffffffffffffffffffffffffffffffffffff1681565b6060600560008373ffffffffffffffffffffffffffffffffffffffff1673ffffffffffffffffffffffffffffffffffffffff1681526020019081526020016000208054806020026020016040519081016040528092919081815260200182805480156200125e57602002820191906000526020600020905b8160009054906101000a900473ffffffffffffffffffffffffffffffffffffffff1673ffffffffffffffffffffffffffffffffffffffff168152602001906001019080831162001213575b50505050509050919050565b600360009054906101000a900473ffffffffffffffffffffffffffffffffffffffff1681565b6000809054906101000a900473ffffffffffffffffffffffffffffffffffffffff1681565b604051610e6680620012d883390190565b60405161099a806200213e8339019056fe60806040523480156200001157600080fd5b5060405162000e6638038062000e6683398101806040526101808110156200003857600080fd5b8101908080519060200190929190805190602001909291908051906020019092919080519060200190929190805190602001909291908051906020019092919080519060200190929190805190602001909291908051640100000000811115620000a157600080fd5b82810190506020810184811115620000b857600080fd5b8151856001820283011164010000000082111715620000d657600080fd5b50509291906020018051640100000000811115620000f357600080fd5b828101905060208101848111156200010a57600080fd5b81518560018202830111640100000000821117156200012857600080fd5b505092919060200180519060200190929190805190602001909291905050508b6001819055508a60038190555089600481905550886005819055508760068190555086600781905550856009819055508460088190555083600a90805190602001906200019792919062000270565b5082600b9080519060200190620001b092919062000270565b5081600c60006101000a81548173ffffffffffffffffffffffffffffffffffffffff021916908373ffffffffffffffffffffffffffffffffffffffff16021790555080600d60006101000a81548173ffffffffffffffffffffffffffffffffffffffff021916908373ffffffffffffffffffffffffffffffffffffffff16021790555060008060006101000a81548160ff021916908360018111156200025257fe5b02179055508b6002819055505050505050505050505050506200031f565b828054600181600116156101000203166002900490600052602060002090601f016020900481019282601f10620002b357805160ff1916838001178555620002e4565b82800160010185558215620002e4579182015b82811115620002e3578251825591602001919060010190620002c6565b5b509050620002f39190620002f7565b5090565b6200031c91905b8082111562000318576000816000905550600101620002fe565b5090565b90565b610b37806200032f6000396000f3fe6080604052600436106100fb576000357c0100000000000000000000000000000000000000000000000000000000900463ffffffff168062328792146101005780630c3f6acf1461012b578063197881b7146101645780631a607821146101bb5780631d5d1760146101e65780632b2e1374146102115780634fd7d76a1461023c578063589af69c146102675780635d06d3d0146102925780636132995c146102a95780637284e416146102d75780637dbad26c146103675780638f84aa091461039257806393963410146103e957806397a993aa14610464578063b3f487f1146104c9578063ee2bdd48146104f4578063f8e131f01461051f575b600080fd5b34801561010c57600080fd5b506101156105af565b6040518082815260200191505060405180910390f35b34801561013757600080fd5b506101406105b5565b6040518082600181111561015057fe5b60ff16815260200191505060405180910390f35b34801561017057600080fd5b506101796105c7565b604051808273ffffffffffffffffffffffffffffffffffffffff1673ffffffffffffffffffffffffffffffffffffffff16815260200191505060405180910390f35b3480156101c757600080fd5b506101d06105ed565b6040518082815260200191505060405180910390f35b3480156101f257600080fd5b506101fb6105f3565b6040518082815260200191505060405180910390f35b34801561021d57600080fd5b506102266105f9565b6040518082815260200191505060405180910390f35b34801561024857600080fd5b506102516105ff565b6040518082815260200191505060405180910390f35b34801561027357600080fd5b5061027c610605565b6040518082815260200191505060405180910390f35b34801561029e57600080fd5b506102a761060b565b005b6102d5600480360360208110156102bf57600080fd5b81019080803590602001909291905050506106c1565b005b3480156102e357600080fd5b506102ec610941565b6040518080602001828103825283818151815260200191508051906020019080838360005b8381101561032c578082015181840152602081019050610311565b50505050905090810190601f1680156103595780820380516001836020036101000a031916815260200191505b509250505060405180910390f35b34801561037357600080fd5b5061037c6109df565b6040518082815260200191505060405180910390f35b34801561039e57600080fd5b506103a76109e5565b604051808273ffffffffffffffffffffffffffffffffffffffff1673ffffffffffffffffffffffffffffffffffffffff16815260200191505060405180910390f35b3480156103f557600080fd5b506104226004803603602081101561040c57600080fd5b8101908080359060200190929190505050610a0b565b604051808273ffffffffffffffffffffffffffffffffffffffff1673ffffffffffffffffffffffffffffffffffffffff16815260200191505060405180910390f35b34801561047057600080fd5b506104b36004803603602081101561048757600080fd5b81019080803573ffffffffffffffffffffffffffffffffffffffff169060200190929190505050610a49565b6040518082815260200191505060405180910390f35b3480156104d557600080fd5b506104de610a61565b6040518082815260200191505060405180910390f35b34801561050057600080fd5b50610509610a67565b6040518082815260200191505060405180910390f35b34801561052b57600080fd5b50610534610a6d565b6040518080602001828103825283818151815260200191508051906020019080838360005b83811015610574578082015181840152602081019050610559565b50505050905090810190601f1680156105a15780820380516001836020036101000a031916815260200191505b509250505060405180910390f35b60095481565b6000809054906101000a900460ff1681565b600d60009054906101000a900473ffffffffffffffffffffffffffffffffffffffff1681565b60045481565b60085481565b60035481565b60065481565b60075481565b600d60009054906101000a900473ffffffffffffffffffffffffffffffffffffffff1673ffffffffffffffffffffffffffffffffffffffff163373ffffffffffffffffffffffffffffffffffffffff1614151561066757600080fd5b600080600181111561067557fe5b6000809054906101000a900460ff16600181111561068f57fe5b14151561069b57600080fd5b60016000806101000a81548160ff021916908360018111156106b957fe5b021790555050565b60018060018111156106cf57fe5b6000809054906101000a900460ff1660018111156106e957fe5b1415156106f557600080fd5b60008211151561076d576040517f08c379a000000000000000000000000000000000000000000000000000000000815260040180806020018281038252601d8152602001807f546f6e73206d757374206265206120706f7369746976652076616c756500000081525060200191505060405180910390fd5b60025482111561077d5760025491505b8160095402341015151561081f576040517f08c379a00000000000000000000000000000000000000000000000000000000081526004018080602001828103825260308152602001807f496e73756666696369656e742076616c75652073656e7420746f20636f6d706c81526020017f657465207472616e73616374696f6e2e0000000000000000000000000000000081525060400191505060405180910390fd5b600c60009054906101000a900473ffffffffffffffffffffffffffffffffffffffff1673ffffffffffffffffffffffffffffffffffffffff166108fc349081150290604051600060405180830381858888f19350505050158015610887573d6000803e3d6000fd5b50816002540360028190555081600e60003373ffffffffffffffffffffffffffffffffffffffff1673ffffffffffffffffffffffffffffffffffffffff16815260200190815260200160002081905550600f3390806001815401808255809150509060018203906000526020600020016000909192909190916101000a81548173ffffffffffffffffffffffffffffffffffffffff021916908373ffffffffffffffffffffffffffffffffffffffff160217905550505050565b600a8054600181600116156101000203166002900480601f0160208091040260200160405190810160405280929190818152602001828054600181600116156101000203166002900480156109d75780601f106109ac576101008083540402835291602001916109d7565b820191906000526020600020905b8154815290600101906020018083116109ba57829003601f168201915b505050505081565b60015481565b600c60009054906101000a900473ffffffffffffffffffffffffffffffffffffffff1681565b600f81815481101515610a1a57fe5b906000526020600020016000915054906101000a900473ffffffffffffffffffffffffffffffffffffffff1681565b600e6020528060005260406000206000915090505481565b60025481565b60055481565b600b8054600181600116156101000203166002900480601f016020809104026020016040519081016040528092919081815260200182805460018160011615610100020316600290048015610b035780601f10610ad857610100808354040283529160200191610b03565b820191906000526020600020905b815481529060010190602001808311610ae657829003601f168201915b50505050508156fea165627a7a7230582035c57b60d5750322f9a25b66b1861dc6aecd22eed8e58944220c10b82e3a48d30029608060405260405160608061099a8339810180604052606081101561002357600080fd5b8101908080519060200190929190805190602001909291908051906020019092919050505060003411156100755760008060006101000a81548160ff0219169083600381111561006f57fe5b02179055505b81600060016101000a81548173ffffffffffffffffffffffffffffffffffffffff021916908373ffffffffffffffffffffffffffffffffffffffff16021790555080600160006101000a81548173ffffffffffffffffffffffffffffffffffffffff021916908373ffffffffffffffffffffffffffffffffffffffff16021790555082600260006101000a81548173ffffffffffffffffffffffffffffffffffffffff021916908373ffffffffffffffffffffffffffffffffffffffff16021790555062278d004201600381905550624f1a004201600481905550505050610838806101626000396000f3fe608060405260043610610099576000357c0100000000000000000000000000000000000000000000000000000000900463ffffffff1680630589d1881461009e5780630c3f6acf146100c9578063197881b71461010257806359ecea50146101595780635d06d3d014610184578063d5f394881461019b578063ea8a1af0146101f2578063edb840db14610209578063f3d86e4a14610260575b600080fd5b3480156100aa57600080fd5b506100b3610277565b6040518082815260200191505060405180910390f35b3480156100d557600080fd5b506100de61027d565b604051808260038111156100ee57fe5b60ff16815260200191505060405180910390f35b34801561010e57600080fd5b5061011761028f565b604051808273ffffffffffffffffffffffffffffffffffffffff1673ffffffffffffffffffffffffffffffffffffffff16815260200191505060405180910390f35b34801561016557600080fd5b5061016e6102b5565b6040518082815260200191505060405180910390f35b34801561019057600080fd5b506101996102bb565b005b3480156101a757600080fd5b506101b061050f565b604051808273ffffffffffffffffffffffffffffffffffffffff1673ffffffffffffffffffffffffffffffffffffffff16815260200191505060405180910390f35b3480156101fe57600080fd5b50610207610535565b005b34801561021557600080fd5b5061021e610636565b604051808273ffffffffffffffffffffffffffffffffffffffff1673ffffffffffffffffffffffffffffffffffffffff16815260200191505060405180910390f35b34801561026c57600080fd5b5061027561065c565b005b60045481565b6000809054906101000a900460ff1681565b600060019054906101000a900473ffffffffffffffffffffffffffffffffffffffff1681565b60035481565b600060019054906101000a900473ffffffffffffffffffffffffffffffffffffffff1673ffffffffffffffffffffffffffffffffffffffff163373ffffffffffffffffffffffffffffffffffffffff1614806103645750600160009054906101000a900473ffffffffffffffffffffffffffffffffffffffff1673ffffffffffffffffffffffffffffffffffffffff163373ffffffffffffffffffffffffffffffffffffffff16145b151561036f57600080fd5b600080600381111561037d57fe5b6000809054906101000a900460ff16600381111561039757fe5b1415156103a357600080fd5b6003544211151515610469576040517f08c379a000000000000000000000000000000000000000000000000000000000815260040180806020018281038252604a8152602001807f436f6e747261637420456e646f7273656d656e742057696e646f77206861732081526020017f656e6465642e2046756e6473206d6179206265207265636f76657261626c652081526020017f627920436172626f732e0000000000000000000000000000000000000000000081525060600191505060405180910390fd5b600260009054906101000a900473ffffffffffffffffffffffffffffffffffffffff1673ffffffffffffffffffffffffffffffffffffffff166108fc3073ffffffffffffffffffffffffffffffffffffffff16319081150290604051600060405180830381858888f193505050501580156104e8573d6000803e3d6000fd5b5060016000806101000a81548160ff0219169083600381111561050757fe5b021790555050565b600260009054906101000a900473ffffffffffffffffffffffffffffffffffffffff1681565b600160009054906101000a900473ffffffffffffffffffffffffffffffffffffffff1673ffffffffffffffffffffffffffffffffffffffff163373ffffffffffffffffffffffffffffffffffffffff1614151561059157600080fd5b600260009054906101000a900473ffffffffffffffffffffffffffffffffffffffff1673ffffffffffffffffffffffffffffffffffffffff166108fc3073ffffffffffffffffffffffffffffffffffffffff16319081150290604051600060405180830381858888f19350505050158015610610573d6000803e3d6000fd5b5060026000806101000a81548160ff0219169083600381111561062f57fe5b0217905550565b600160009054906101000a900473ffffffffffffffffffffffffffffffffffffffff1681565b600160009054906101000a900473ffffffffffffffffffffffffffffffffffffffff1673ffffffffffffffffffffffffffffffffffffffff163373ffffffffffffffffffffffffffffffffffffffff161415156106b857600080fd5b60008060038111156106c657fe5b6000809054906101000a900460ff1660038111156106e057fe5b1415156106ec57600080fd5b6004544210151515610766576040517f08c379a00000000000000000000000000000000000000000000000000000000081526004018080602001828103825260198152602001807f436f6e7472616374206973207374696c6c206163746976652e0000000000000081525060200191505060405180910390fd5b600160009054906101000a900473ffffffffffffffffffffffffffffffffffffffff1673ffffffffffffffffffffffffffffffffffffffff166108fc3073ffffffffffffffffffffffffffffffffffffffff16319081150290604051600060405180830381858888f193505050501580156107e5573d6000803e3d6000fd5b5060036000806101000a81548160ff0219169083600381111561080457fe5b02179055505056fea165627a7a723058208da887a81260e288cfc1b15e75b591e72c65a251f1324dc5b7270d5f06f0f5d90029a165627a7a723058203ba4f44a36cd108049a210dd18829730d286036d920c73f9ee4a00092d10a7de0029608060405234801561001057600080fd5b506040516020806114428339810180604052602081101561003057600080fd5b810190808051906020019092919050505080600160006101000a81548173ffffffffffffffffffffffffffffffffffffffff021916908373ffffffffffffffffffffffffffffffffffffffff160217905550336000806101000a81548173ffffffffffffffffffffffffffffffffffffffff021916908373ffffffffffffffffffffffffffffffffffffffff1602179055506001600460008373ffffffffffffffffffffffffffffffffffffffff1673ffffffffffffffffffffffffffffffffffffffff16815260200190815260200160002060000160006101000a81548160ff021916908315150217905550506113158061012d6000396000f3fe60806040526004361061008e576000357c0100000000000000000000000000000000000000000000000000000000900463ffffffff16806369dc9ff3146100935780636dd7d8ea146101975780636f07989b146101e857806394461d9914610239578063a3ec138d14610290578063b6a5d7de146102f9578063c5592be21461034a578063edb840db14610452575b600080fd5b34801561009f57600080fd5b506100e2600480360360208110156100b657600080fd5b81019080803573ffffffffffffffffffffffffffffffffffffffff1690602001909291905050506104a9565b60405180806020018473ffffffffffffffffffffffffffffffffffffffff1673ffffffffffffffffffffffffffffffffffffffff168152602001838152602001828103825285818151815260200191508051906020019080838360005b8381101561015a57808201518184015260208101905061013f565b50505050905090810190601f1680156101875780820380516001836020036101000a031916815260200191505b5094505050505060405180910390f35b3480156101a357600080fd5b506101e6600480360360208110156101ba57600080fd5b81019080803573ffffffffffffffffffffffffffffffffffffffff16906020019092919050505061058b565b005b3480156101f457600080fd5b506102376004803603602081101561020b57600080fd5b81019080803573ffffffffffffffffffffffffffffffffffffffff169060200190929190505050610a8a565b005b34801561024557600080fd5b5061024e610b3b565b604051808273ffffffffffffffffffffffffffffffffffffffff1673ffffffffffffffffffffffffffffffffffffffff16815260200191505060405180910390f35b34801561029c57600080fd5b506102df600480360360208110156102b357600080fd5b81019080803573ffffffffffffffffffffffffffffffffffffffff169060200190929190505050610b60565b604051808215151515815260200191505060405180910390f35b34801561030557600080fd5b506103486004803603602081101561031c57600080fd5b81019080803573ffffffffffffffffffffffffffffffffffffffff169060200190929190505050610b8b565b005b34801561035657600080fd5b506104506004803603606081101561036d57600080fd5b810190808035906020019064010000000081111561038a57600080fd5b82018360208201111561039c57600080fd5b803590602001918460018302840111640100000000831117156103be57600080fd5b91908080601f016020809104026020016040519081016040528093929190818152602001838380828437600081840152601f19601f820116905080830192505050505050509192919290803573ffffffffffffffffffffffffffffffffffffffff169060200190929190803573ffffffffffffffffffffffffffffffffffffffff169060200190929190505050610ca8565b005b34801561045e57600080fd5b50610467610deb565b604051808273ffffffffffffffffffffffffffffffffffffffff1673ffffffffffffffffffffffffffffffffffffffff16815260200191505060405180910390f35b6003602052806000526040600020600091509050806000018054600181600116156101000203166002900480601f0160208091040260200160405190810160405280929190818152602001828054600181600116156101000203166002900480156105555780601f1061052a57610100808354040283529160200191610555565b820191906000526020600020905b81548152906001019060200180831161053857829003601f168201915b5050505050908060010160009054906101000a900473ffffffffffffffffffffffffffffffffffffffff16908060020154905083565b60011515600460003373ffffffffffffffffffffffffffffffffffffffff1673ffffffffffffffffffffffffffffffffffffffff16815260200190815260200160002060000160009054906101000a900460ff161515141515610656576040517f08c379a00000000000000000000000000000000000000000000000000000000081526004018080602001828103825260168152602001807f4e6f7420617574686f72697a656420746f20766f74650000000000000000000081525060200191505060405180910390fd5b6000600460003373ffffffffffffffffffffffffffffffffffffffff1673ffffffffffffffffffffffffffffffffffffffff16815260200190815260200160002060010160008373ffffffffffffffffffffffffffffffffffffffff1673ffffffffffffffffffffffffffffffffffffffff16815260200190815260200160002060006101000a81548160ff02191690831515021790551515610787576040517f08c379a00000000000000000000000000000000000000000000000000000000081526004018080602001828103825260238152602001807f566f7465722068617320616c726561647920766f74656420666f72207468697381526020017f204333000000000000000000000000000000000000000000000000000000000081525060400191505060405180910390fd5b6001600460003373ffffffffffffffffffffffffffffffffffffffff1673ffffffffffffffffffffffffffffffffffffffff16815260200190815260200160002060010160008373ffffffffffffffffffffffffffffffffffffffff1673ffffffffffffffffffffffffffffffffffffffff16815260200190815260200160002060006101000a81548160ff0219169083151502179055506001600360008373ffffffffffffffffffffffffffffffffffffffff1673ffffffffffffffffffffffffffffffffffffffff168152602001908152602001600020600201600082825401925050819055507f8a042098e1a2f4812a63615e616d7ad6458662f2ebed8a1e7d5fcb657de504fa600360008373ffffffffffffffffffffffffffffffffffffffff1673ffffffffffffffffffffffffffffffffffffffff16815260200190815260200160002060000182600360008573ffffffffffffffffffffffffffffffffffffffff1673ffffffffffffffffffffffffffffffffffffffff16815260200190815260200160002060010160009054906101000a900473ffffffffffffffffffffffffffffffffffffffff16600360008673ffffffffffffffffffffffffffffffffffffffff1673ffffffffffffffffffffffffffffffffffffffff1681526020019081526020016000206002015460405180806020018573ffffffffffffffffffffffffffffffffffffffff1673ffffffffffffffffffffffffffffffffffffffff1681526020018473ffffffffffffffffffffffffffffffffffffffff1673ffffffffffffffffffffffffffffffffffffffff168152602001838152602001828103825286818154600181600116156101000203166002900481526020019150805460018160011615610100020316600290048015610a6d5780601f10610a4257610100808354040283529160200191610a6d565b820191906000526020600020905b815481529060010190602001808311610a5057829003601f168201915b50509550505050505060405180910390a1610a8781610e11565b50565b600160009054906101000a900473ffffffffffffffffffffffffffffffffffffffff1673ffffffffffffffffffffffffffffffffffffffff163373ffffffffffffffffffffffffffffffffffffffff16141515610ae657600080fd5b600254600360008373ffffffffffffffffffffffffffffffffffffffff1673ffffffffffffffffffffffffffffffffffffffff16815260200190815260200160002060020181905550610b3881610e11565b50565b6000809054906101000a900473ffffffffffffffffffffffffffffffffffffffff1681565b60046020528060005260406000206000915090508060000160009054906101000a900460ff16905081565b600160009054906101000a900473ffffffffffffffffffffffffffffffffffffffff1673ffffffffffffffffffffffffffffffffffffffff163373ffffffffffffffffffffffffffffffffffffffff16141515610be757600080fd5b6001600460008373ffffffffffffffffffffffffffffffffffffffff1673ffffffffffffffffffffffffffffffffffffffff16815260200190815260200160002060000160006101000a81548160ff0219169083151502179055507fdc84e3a4c83602050e3865df792a4e6800211a79ac60db94e703a820ce89292481604051808273ffffffffffffffffffffffffffffffffffffffff1673ffffffffffffffffffffffffffffffffffffffff16815260200191505060405180910390a150565b6000809054906101000a900473ffffffffffffffffffffffffffffffffffffffff1673ffffffffffffffffffffffffffffffffffffffff163373ffffffffffffffffffffffffffffffffffffffff16141515610d0357600080fd5b6060604051908101604052808481526020018273ffffffffffffffffffffffffffffffffffffffff1681526020016000815250600360008473ffffffffffffffffffffffffffffffffffffffff1673ffffffffffffffffffffffffffffffffffffffff1681526020019081526020016000206000820151816000019080519060200190610d91929190611244565b5060208201518160010160006101000a81548173ffffffffffffffffffffffffffffffffffffffff021916908373ffffffffffffffffffffffffffffffffffffffff16021790555060408201518160020155905050505050565b600160009054906101000a900473ffffffffffffffffffffffffffffffffffffffff1681565b600254600360008373ffffffffffffffffffffffffffffffffffffffff1673ffffffffffffffffffffffffffffffffffffffff168152602001908152602001600020600201541015156110d857610ec9600360008373ffffffffffffffffffffffffffffffffffffffff1673ffffffffffffffffffffffffffffffffffffffff16815260200190815260200160002060010160009054906101000a900473ffffffffffffffffffffffffffffffffffffffff166110db565b7f1f1adde87fc0bf53e69d5666ba843f3ab5b5d7c1e6c6c83b5195fee80762ec4d600360008373ffffffffffffffffffffffffffffffffffffffff1673ffffffffffffffffffffffffffffffffffffffff16815260200190815260200160002060000182600360008573ffffffffffffffffffffffffffffffffffffffff1673ffffffffffffffffffffffffffffffffffffffff16815260200190815260200160002060010160009054906101000a900473ffffffffffffffffffffffffffffffffffffffff16600360008673ffffffffffffffffffffffffffffffffffffffff1673ffffffffffffffffffffffffffffffffffffffff1681526020019081526020016000206002015460405180806020018573ffffffffffffffffffffffffffffffffffffffff1673ffffffffffffffffffffffffffffffffffffffff1681526020018473ffffffffffffffffffffffffffffffffffffffff1673ffffffffffffffffffffffffffffffffffffffff1681526020018381526020018281038252868181546001816001161561010002031660029004815260200191508054600181600116156101000203166002900480156110c65780601f1061109b576101008083540402835291602001916110c6565b820191906000526020600020905b8154815290600101906020018083116110a957829003601f168201915b50509550505050505060405180910390a15b50565b60008190508073ffffffffffffffffffffffffffffffffffffffff16635d06d3d06040518163ffffffff167c0100000000000000000000000000000000000000000000000000000000028152600401600060405180830381600087803b15801561114457600080fd5b505af1158015611158573d6000803e3d6000fd5b505050506000600360008473ffffffffffffffffffffffffffffffffffffffff1673ffffffffffffffffffffffffffffffffffffffff16815260200190815260200160002060010160009054906101000a900473ffffffffffffffffffffffffffffffffffffffff1690508073ffffffffffffffffffffffffffffffffffffffff16635d06d3d06040518163ffffffff167c0100000000000000000000000000000000000000000000000000000000028152600401600060405180830381600087803b15801561122757600080fd5b505af115801561123b573d6000803e3d6000fd5b50505050505050565b828054600181600116156101000203166002900490600052602060002090601f016020900481019282601f1061128557805160ff19168380011785556112b3565b828001600101855582156112b3579182015b828111156112b2578251825591602001919060010190611297565b5b5090506112c091906112c4565b5090565b6112e691905b808211156112e25760008160009055506001016112ca565b5090565b9056fea165627a7a72305820131464fba2cc72029464ef39e5c21c6b4e23ebbe3a5c6ce92ccfe574a1b6a2300029608060405234801561001057600080fd5b5033600360006101000a81548173ffffffffffffffffffffffffffffffffffffffff021916908373ffffffffffffffffffffffffffffffffffffffff1602179055506032600081905550607860028190555061007961007e640100000000026401000000009004565b6100d9565b600254670de0b6b3a76400006000540281151561009757fe5b046001819055507ff7672011775d500bfa8ec2823f3010d4c76b44b2bfdac23bde6b4bf62019583c6001546040518082815260200191505060405180910390a1565b6102e9806100e86000396000f3fe60806040526004361061006d576000357c0100000000000000000000000000000000000000000000000000000000900463ffffffff1680635b12278d1461007257806393fa216f1461009d578063a27361dd146100d8578063bccc69f814610103578063edb840db1461012e575b600080fd5b34801561007e57600080fd5b50610087610185565b6040518082815260200191505060405180910390f35b3480156100a957600080fd5b506100d6600480360360208110156100c057600080fd5b810190808035906020019092919050505061018b565b005b3480156100e457600080fd5b506100ed610230565b6040518082815260200191505060405180910390f35b34801561010f57600080fd5b50610118610236565b6040518082815260200191505060405180910390f35b34801561013a57600080fd5b5061014361023c565b604051808273ffffffffffffffffffffffffffffffffffffffff1673ffffffffffffffffffffffffffffffffffffffff16815260200191505060405180910390f35b60025481565b600360009054906101000a900473ffffffffffffffffffffffffffffffffffffffff1673ffffffffffffffffffffffffffffffffffffffff163373ffffffffffffffffffffffffffffffffffffffff161415156101e757600080fd5b806000819055506101f6610262565b7f8d6b303adfc89c5ff977100a231962a274887543d49dc1af19b53ba62826d87f816040518082815260200191505060405180910390a150565b60015481565b60005481565b600360009054906101000a900473ffffffffffffffffffffffffffffffffffffffff1681565b600254670de0b6b3a76400006000540281151561027b57fe5b046001819055507ff7672011775d500bfa8ec2823f3010d4c76b44b2bfdac23bde6b4bf62019583c6001546040518082815260200191505060405180910390a156fea165627a7a723058200cacbf90cd70af7a5b6f11b377f7b7c068141830fd80b8adeae54d555079d2b80029",
  "source": "pragma solidity ^0.5;\n\n//Import Contracts\nimport \"./Endorsement.sol\";\nimport \"./C3.sol\";\nimport \"./Escrow.sol\";\nimport \"./C3PO.sol\";\n\n\ncontract Gaia {\n    // function() external payable {}\n    address payable public  carbos;\n    Endorsement public endorser;\n    address public endorsement;\n    C3PO public c3po;\n\n    //this doesn't scale well and we should refactor to store pending and verified things seperately\n    address[] public allC3s; //might want to move it only storing endorsed C3s\n\n    event Generated(\n      address contractAddress,\n      address escrowAddress\n    );\n\n    //stores all the users and their c3s\n    mapping(address => address[]) public users;\n\n    //stores all the c3s addresses to their corrispoding User\n    mapping(address => address) public c3s;\n\n    //map geometries to their C3s\n    mapping(string => address) geometries;\n\n    constructor() public {\n      carbos = msg.sender;\n      endorser = new Endorsement(msg.sender);\n      c3po = new C3PO();\n      endorsement = address(endorser);\n    }\n\n    /*\n    * @function: adds a newly created C3 to a c3s mapping until it is endorsed.\n    * @param userAddress: payable? address of the contract owner\n    * @param: TODO add remaining c3 params\n    */\n    function genC3(\n      uint _totalCarbon,\n      uint _aboveGroundCarbon,\n      uint _belowGroundCarbon,\n      uint _hectares,\n      int _latitude,\n      int _longitude,\n      uint _raId,\n      uint _ppt,\n      string memory _description,\n      string memory _geometryHash\n    ) public payable {\n\n        //check that _ppt is NOT LOWER THAN C3PO\n        if(_ppt < c3po.ETHPPT()){\n            _ppt = c3po.ETHPPT();\n          }\n        //require msg.value > deposit\n        require(msg.value >= ((_ppt * (_totalCarbon/10**18))/20), \"Message did not contain a large enough deposit.  Expected 5% of total value.\");\n        //create and add C3 contract to the mappings\n        C3 newC3 = new C3(\n          _totalCarbon,\n          _aboveGroundCarbon,\n          _belowGroundCarbon,\n          _hectares,\n          _latitude,\n          _longitude,\n          _ppt,\n          _raId,\n          _description,\n          _geometryHash,\n          msg.sender,\n          endorsement\n        );\n\n\n\n        //TODO reject c3s that have a identical geometryHash\n\n\n\n        //map c3 to lookups\n        geometries[newC3.geometryHash()] = address(newC3);\n        c3s[address(newC3)] = msg.sender;\n        users[msg.sender].push(address(newC3));\n        allC3s.push(address(newC3));\n\n        //create escrow and transfer value\n        Escrow newEscrow = (new Escrow).value(msg.value)(msg.sender, address(endorser), carbos);\n        endorser.addContract(\"Carbon Conservation Contract\", address(newC3), address(newEscrow));\n\n        emit Generated(address(newC3), address(newEscrow));\n    }\n\n    function getUsersC3(address userAddress) public view returns(address[] memory) {\n        return users[userAddress];\n    }\n}\n",
  "sourcePath": "/Users/ntutchton/Repositories/carbos_app/app/contracts/Gaia.sol",
  "compiler": {
    "name": "solc",
    "version": "0.5.0+commit.1d4f565a.Emscripten.clang"
  },
  "schemaVersion": "3.0.1",
  "updatedAt": "2019-02-12T23:38:52.845Z",
  "devdoc": {
    "methods": {}
  },
  "userdoc": {
    "methods": {}
  }
}